:100000000232BF1253617F02024012024C4D53F183
:10001000F775F60175DF0075DE6C75DC3012524540
:10002000D2B222024B4690032DE0B40502C322D285
:100030001ED3220252BA7F0202538F024AD575D0D4
:1000400010100E13D0D0D086D084D085D082D0832B
:10005000D0F0D0E0C20F22100D0280E81253AF8022
:10006000F6020422E86480F8E933E83360110460A2
:10007000F0ED33EC337009E8FCE9FDEAFEEBFF221A
:100080000460DED3EB9FEA9EE99DE8C2E78CF0C2F4
:10009000F795F0400CE8CCF8E9CDF9EACEFAEBCFD1
:1000A000FB1203ED85D0F05804700320D5B3E804AB
:1000B00070075002B2D502042C92D5EC0460F7E42C
:1000C000CCC0E0C398F8603B94186008400DD0E0C5
:1000D000FB020404E4FBFAC9FC8028E830E406E4EF
:1000E000C9FBE4CAFCE830E305E4C9CACBFCE85428
:1000F000076010F8C3E913F9EA13FAEB13FBEC13EA
:10010000FCD8F130F52FC3E49CFCEF9BFFEE9AFE88
:10011000ED99FDD0E0FBEF4E4D4C701222DB030257
:100120000429EC2CFCEF33FFEE33FEED33FDED3014
:10013000E7EB020404EF2BFFEE3AFEED39FDD0E0D1
:10014000FB50130BBB000302042CED13FDEE13FE5A
:10015000EF13FFEC13FC020404EC4D6011E849704E
:1001600017ED33EC3304600DE4FCFFFEFD22E933B0
:10017000E8330470F80204221203ED58046009E425
:10018000CC2481500628500902042C284003020484
:1001900029C0E0EB4A7044B98006D0E0FB020418A5
:1001A000EF4E701CBD8008EBFFEAFEE9FD80EBE935
:1001B0008DF0A4FEE5F0020242E9CDF9EAFEEBFF84
:1001C000EF89F0A4FCE5F0CE89F0A42EFFE435F031
:1001D000CD89F0A42DFEE435F08067EF4E7005BDAB
:1001E00080D780C3EF8BF0A4ACF0EE8BF0A42CFC96
:1001F000E435F0F8EF8AF0A42CE5F038FCE433CBDA
:100200008DF0A42CFCE5F03BF8EE8AF0A42CFCE584
:10021000F038F8E433CF89F0A42CFCE5F038CF3483
:1002200000CE89F0A42FFFE5F03EFEE433C98DF047
:10023000A42EFEE5F039CD8AF0A42FFFE5F03EFEB6
:10024000E43DFD33D0E0FB50070BBB000F02042C54
:10025000EC2CFCEF33FFEE33FEED33FD0204040221
:10026000042CEC5D046005E85904700302042212BA
:1002700003ED580460F6EC4860F2EC7004FDFEFFFC
:1002800022C860DB2481C85009C39860025006026E
:1002900004299850CAF582E9294B4A7005AB8202BD
:1002A000041875F0007C1A7880C3EF9BEE9AED99E4
:1002B000400DC3EF9BFFEE9AFEED99FDE842F0DCA6
:1002C00023ACF0D0E0FFD0E0FED0E0FDAB8220E731
:1002D000101BEB60BAEC2CFCEF33FFEE33FEED337A
:1002E000FD020404E803F830E705C0F075F000EF04
:1002F0002FFFEE33FEED33FD40B830E7C280AA7425
:10030000F8CC6480CCC86480C8F58204604FC3EB2D
:100310009FF5F0EA9E42F0E99D42F0E89C45F060CE
:100320003C501DE5825FFFE582D313CB5BCBF42B02
:100330005582FB50280ABA002409B9002008801D04
:10034000E5825BFBE582D313CF5FCFF4C3132F5558
:1003500082FF50090EBE00050DBD00010CC3EB9FCE
:10036000F5F0EA9E42F0E99D42F0E89C45F0600716
:10037000CC4820E701B3EC2275F020800E75F01018
:10038000800575F0087D007E007F003392D530D562
:1003900003120746EC334010EF33FFEE33FEED332C
:1003A000FDEC33FCD5F0ED22E5F0247EA2D513CC94
:1003B00092E7CDCEFF22EDD2E7CD33EC3392D524B8
:1003C000814006E4FFFEFDFC22FCE4CFCECDCC2430
:1003D000E0501174FF80EDC3CC13CCCD13CDCE1300
:1003E000CECF13CF0470F030D5DE020746E9D2E756
:1003F000C933E833F892D5EDD2E7CD33EC33FC5076
:1004000002B2D522EC30E7100FBF000C0EBE000880
:100410000DBD00040BEB6014A2D5EB13FCED92E7CD
:10042000FD2274FFFCFDFEFF22E480F8A2D574FFDC
:1004300013FC7D80E480EFBB010689828A83E02281
:100440005002E722BBFE02E32289828A83E49322E0
:10045000BB010CE58229F582E5833AF583E0225061
:1004600006E92582F8E622BBFE06E92582F8E222AB
:10047000E58229F582E5833AF583E49322BB0109FD
:1004800089828A83F8E028F022500327F722BBFEF6
:1004900005F8E328F3228A838982F8E4932822BBB3
:1004A000010FF8E58229F582E5833AF583E028F02B
:1004B000225009C58229F8E58226F622BBFE09C52D
:1004C0008229F8E22582F222F8EA2583F583E9936E
:1004D0002822BB010689828A83F0225002F722BBC0
:1004E000FE01F322F8BB010DE58229F582E5833A8E
:1004F000F583E8F0225006E92582C8F622BBFE0506
:10050000E92582C8F222EF8DF0A4A8F0CF8CF0A4E8
:1005100028CE8DF0A42EFE22BC000BBE0029EF8D4C
:10052000F084FFADF022E4CCF875F008EF2FFFEE79
:1005300033FEEC33FCEE9DEC984005FCEE9DFE0F87
:10054000D5F0E9E4CEFD22EDF8F5F0EE8420D21CE2
:10055000FEADF075F008EF2FFFED33FD400798502A
:1005600006D5F0F222C398FD0FD5F0EA22C5F0F8C7
:10057000A3E028F0C5F0F8E582158270021583E04B
:1005800038F022A3F8E0C5F025F0F0E5821582707E
:10059000021583E0C838F0E822BB010A89828A8309
:1005A000E0F5F0A3E022500687F009E71922BBFE30
:1005B00007E3F5F009E3192289828A83E493F5F0D1
:1005C00074019322BB0110E58229F582E5833AF597
:1005D00083E0F5F0A3E0225009E92582F886F008CF
:1005E000E622BBFE0AE92582F8E2F5F008E222E500
:1005F000832AF583E993F5F0A3E99322F8BB01116F
:10060000E58229F582E5833AF583E8F0E5F0A3F089
:10061000225009E92582C8F608A6F022BBFE09E9A6
:100620002582C8F2E5F008F222E88FF0A4CC8BF026
:10063000A42CFCE98EF0A42CFC8AF0EDA42CFCEA9E
:100640008EF0A4CDA8F08BF0A42DCC3825F0FDE9D8
:100650008FF0A42CCD35F0FCEB8EF0A4FEA9F0EBCE
:100660008FF0A4CFC5F02ECD39FEE43CFCEAA42DDA
:10067000CE35F0FDE43CFC2275F008758200EF2FCA
:10068000FFEE33FECD33CDCC33CCC58233C5829B58
:10069000ED9AEC99E58298400CF582EE9BFEED9A7E
:1006A000FDEC99FC0FD5F0D6E4CEFBE4CDFAE4CC1A
:1006B000F9A88222B800C1B90059BA002DEC8BF01C
:1006C00084CFCECDFCE5F0CBF97818EF2FFFEE33D9
:1006D000FEED33FDEC33FCEB33FB10D70399400404
:1006E000EB99FB0FD8E5E4F9FA227818EF2FFFEE2B
:1006F00033FEED33FDEC33FCC933C910D7059BE95C
:100700009A4007EC9BFCE99AF90FD8E0E4C9FAE4B7
:10071000CCFB2275F010EF2FFFEE33FEED33FDCC56
:1007200033CCC833C810D7079BEC9AE899400AED40
:100730009BFDEC9AFCE899F80FD5F0DAE4CDFBE4E8
:10074000CCFAE4C8F922C3E49FFFE49EFEE49DFDD9
:10075000E49CFC22EB9FF5F0EA9E42F0E99D42F01A
:10076000EC6480C864809845F022EB9FF5F0EA9E27
:1007700042F0E99D42F0E89C45F022E8600FECC3AE
:1007800013FCED13FDEE13FEEF13FFD8F122BB01B6
:100790000789828A83020ACE5005E9F8020AC2BBA1
:1007A000FE05E9F8020ADA89828A83020AE6BB01B9
:1007B0000789828A830207C85005E9F8020AF6BB56
:1007C000FE05E9F8020B0222ECF0A3EDF0A3EEF037
:1007D000A3EFF022A8828583F0D083D0821207EBAA
:1007E0001207EB1207EB1207EBE473E493A3C58344
:1007F000C5F0C583C8C582C8F0A3C583C5F0C5834D
:10080000C8C582C822D083D082F8E49370127401E4
:1008100093700DA3A393F8740193F5828883E47316
:10082000740293B5F0067403936860E9A3A3A3A3CD
:1008300080D8EF4E6012EF60010EEDBB010B898294
:100840008A83F0A3DFFCDEFA2289F05007F709DF84
:10085000FCA9F022BBFEFCF309DFFCA9F022E3F5C2
:10086000F009E208B5F06BDFF58067E3F5F009E623
:1008700008B5F05EDFF5805A87F009E608B5F0525A
:10088000DFF6804E87F009E208B5F046DFF68042D9
:1008900088828C8387F009E0A3B5F036DFF68032DA
:1008A00088828C8387F009E493A3B5F025DFF58077
:1008B0002188828C83E3F5F009E0A3B5F014DFF51D
:1008C000801088828C83E3F5F009E493A3B5F002ED
:1008D000DFF4020979808780E9809080D4803480B9
:1008E0001580648074809D80B7808D80A380478050
:1008F0006A803202098588848C8589828A83E493A0
:10090000F5F0A30586E493A30586B5F06CDFEFDE72
:10091000ED806689828A83E493F5F0A3E208B5F05E
:1009200058DFF4805489828A83E0F5F0A3E608B5A5
:10093000F047DFF5804389828A83E0F5F0A3E2087F
:10094000B5F036DFF5803289828A83E493F5F0A32F
:10095000E608B5F024DFF480208002804388848C90
:100960008589828A83E493F5F0A30586E0A3058652
:10097000B5F006DFF0DEEE80007FFFB5F0020F225B
:1009800040027F012288848C8589828A83E0F5F089
:10099000A30586E0A30586B5F0DFDFF1DEEF80D9A1
:1009A00088848C8589828A83E0F5F0A30586E493A8
:1009B000A30586B5F0C3DFF0DEEE80BD88F0EF6002
:1009C000010E4E60BFED2402B4040050ACF582EB82
:1009D0002402B4040050A223234582239008D57337
:1009E000E709F608DFFA8046E709F208DFFA803EF9
:1009F00088828C83E709F0A3DFFA8032E309F608E6
:100A0000DFFA806EE309F208DFFA806688828C8361
:100A1000E309F0A3DFFA805A89828A83E0A3F6080B
:100A2000DFFA804E89828A83E0A3F208DFFA8042EF
:100A300080D280FA80C680D4805580F280298010D0
:100A400080A680EA809A80A880DA80E280CA802925
:100A500088848C8589828A83E493A30586F0A30524
:100A600086DFF5DEF3800B89828A83E493A3F608A0
:100A7000DFF9ECFAA9F0EDFB2288848C8589828A63
:100A800083E0A30586F0A30586DFF6DEF480E38924
:100A9000828A83E493A3F208DFF980D688F0EF60BE
:100AA000010E4E60CD88F0ED2402B4040050C3F571
:100AB00082EB2402B4040050B92323458223900A18
:100AC0003073E6FC08E6FD08E6FE08E6FF22E0FCDF
:100AD000A3E0FDA3E0FEA3E0FF22E2FC08E2FD08A4
:100AE000E2FE08E2FF22E493FC740193FD7402939A
:100AF000FE740393FF22ECF608EDF608EEF608EF1D
:100B0000F622ECF208EDF208EEF208EFF222900283
:100B1000E2E064136003020BAF90029BE0FF14F06D
:100B2000EF7005D20B7405F0300A2A90029FE0D3D3
:100B30009428500D124A21500890029FE004F08042
:100B4000347B2C7D047F06124EFBC20A9001E7E045
:100B50004410F0802090029FE0D394285017124A4E
:100B60002150127B2D7D047F06124EFBD20A90018C
:100B7000E7E054EFF0900090E0FEA3E0FF123D8725
:100B8000D3900035E09400900034E09400401AEFD8
:100B90004E701690029CE0600414F080129000EBFE
:100BA0007401F0A3742CF0800690029C740CF01277
:100BB00052D95003020E3F300B0612196BC20B22A2
:100BC00012535850799002A8E06073B40114C21710
:100BD0007B007A607D037F161241C59002A87402E3
:100BE000F0229002A8E0B402179000A4E0FEA3E077
:100BF000FF123D87122F977D15120E407403F022CD
:100C00009002A8E0B40314900034E0FEA3E0FF12C9
:100C10002F977D14120E407404F022900034E0707F
:100C200002A3E07005FE7F0180047E007F00122F8A
:100C3000977D127F121241C5E49002A8F022900223
:100C40009DE07002A3E07003020DA27F011230D07C
:100C500050111238CF400C9002D3E07006122F745E
:100C6000122FF99002A9E0B40F03D38001C39216AA
:100C700090029DE0FF64166014EF6412600F900212
:100C8000D3E07021122F74122FF9020D79122F77F1
:100C9000F9B91614AF05EDD3943F400C9002D3E0A0
:100CA0007003123003020D79122F77F9B91214AFC5
:100CB00005EDD39413400C9002D3E070031230037F
:100CC000020D7990029DE0FEA3E08EF01208050C63
:100CD000FF12130D0716070D16160F0D2516170D0B
:100CE00034161C0D3D16230D55162F0D5E163C0DAA
:100CF00067163D0D70163E0D79163F00000D7F12F0
:100D00002F8FE4F0020E103016067E167F08803A10
:100D10007E007F0080343016067E167F1080047EB1
:100D2000007F0080253016067E167F1880047E0026
:100D30007F008016122F8F7420F0020E10301606DE
:100D40007E167F2F80047E007F0090029DEEF0A330
:100D5000EFF0020E10122F8F743CF0020E10122FC3
:100D60008F743DF0020E10122F8F743EF0020E10A1
:100D7000122F8F743FF0020E10E490029D801E909F
:100D8000029EE004F0700690029DE004F0D3900211
:100D90009EE0944090029DE094164074E4F0A3F02D
:100DA000806E7B017A0179FA7F05123F009002A9DB
:100DB000EFF0E4FF1230D09002A9E0FF605224F07F
:100DC000600D14601D14602214600F2404702390C1
:100DD000029D7412F0A304F08036122F8F7408F075
:100DE000802E122F8F7410F08026122F8F742FF008
:100DF000801E9002D3E070137480F09002A9E090FE
:100E000002CFF09001FAE09002D4F0E49002A9F051
:100E100090029DE07002A3E06012124F8940209082
:100E200002D3E0701A122F74122FF9229002A9E057
:100E3000FB600C7D027F06124EFBE49002A9F022BB
:100E40007F121241C59002A8229002E2E0B403038F
:100E5000D38001C340030211281237439000EAE017
:100E6000701220B427900296E004F0E0640A70212A
:100E70007B03801030B415900296E004F0E0B40AD1
:100E8000107B04E4FD7F01124EFB8000E49002968B
:100E9000F0900285E0705A7B017A0279917F02120C
:100EA0003F00900285EFF06048900291E0FFC3940C
:100EB0000C5030900285E0FE74059E500EEE9407B3
:100EC0005009E4900299F0A3F080269002D3E070DC
:100ED0001B7481F0900285E09002CFF09002D4EF75
:100EE000F080099002D3E07003123D27E490028560
:100EF000F0900288E07002A3E06017900289E0247D
:100F0000FFF0900288E034FFF0E07002A3E070028E
:100F1000C2A5900285E07003021128123FB9900229
:100F200091E0FB6003020FB9900285E0FD6405705B
:100F300044123D48FFEE60030210F5EF24CE601925
:100F400024E2601A24F66025245A60030210F51288
:100F50004E12D2A6C2A70210F5D2840210F5D2A575
:100F60009002887401F0A37490F00210F512112918
:100F700004F00210F5900285E0FD6406702C123D2D
:100F800048FFEE60030210F5EF24F66010240A60BB
:100F9000030210F5C284D2A6D2A70210F5123D407A
:100FA0001248E87B0B7D0602106F9002D3E06003CD
:100FB0000210F0123D270210F0900291E0FB640B4A
:100FC0006003021081900285E0FD64066003021058
:100FD000769000EAE07003021065123D488EF01230
:100FE000080510460000104B02BC104B02EE104BDF
:100FF0000320104B0352104B0384104B03B6104BCD
:1010000003E8104B041A104B044C104B047E104B99
:1010100004B0104B04E2104B0514104B0546104B66
:101020000578104B05AA104B05DC104B0672104BCF
:1010300006A4104B06D6104B0708105E07D01063AD
:101040000834000010F5C2A40210F520B403021009
:10105000F59002997407F0A374BCF00210F5D2A4C5
:101060000210F5800A900285E0FD900291E0FB12EB
:101070001129F00210F59002D3E07003123D278091
:101080006F900285E0B405051228538068900285B0
:10109000E06406701A123D48FFEE7059EF24F660C6
:1010A00006240A70508020123D3B1248E88041908F
:1010B0000285E064077030123D48FFEE7037EF2480
:1010C0009C60102464702E900291E0FFC216123FC3
:1010D0005D8022123D3B1248E8900291E0FD7B05C5
:1010E0007F02124EFB80099002D3E07003123D276D
:1010F000E4900285F090029AE004F0700690029964
:10110000E004F0D390029AE094B8900299E0940B36
:1011100040169002D3E070057460123D29E49002FD
:1011200085F0900299F0A3F0227F021248E8E49043
:101130000285F09000EA221239679002011239729A
:10114000E4A3F0120599FFAEF0123D87900207EE7E
:10115000F0A3EFF064F87003EE640560031239B594
:10116000900207E0FEA3E08EF012080511A0000532
:1011700011B6001911B0001B138D005A121E05E69E
:10118000127105F012C805F1135C05F2136405F441
:1011900013D905F6136F05F811FD063F000013C6BD
:1011A0007B02E4FD7F01124EFB7B187F0602136A6F
:1011B00012537A0213D912394C1239815003021397
:1011C0009590020912396A1214159000ED1207C8A1
:1011D0001239A9A3E0FF1249661251E49000F1EE22
:1011E000F0A3EFF07B017A0079ED900211E4F0A317
:1011F0007406F07F007E041233F60213D97B0EE4EE
:10120000FD7F03124EFB7D0B1213ED9001E31207DD
:10121000D400005B837B067D017F0202136A1239D2
:101220004C123981500302139590020912396A1247
:1012300013DD30E1057D011213ED900206E030E28E
:10124000057B061213F5900206E030E3057B0612DB
:1012500013FD900206E030E4057B061214059002AF
:1012600006E020E7030213D97B067D077F02021305
:101270006A12394C123981500302139590020912F7
:10128000396A1213DD30E1057B0512140D90020658
:10129000E030E2057B051213F5900206E030E30929
:1012A0007B057D037F02124EFB900206E030E405D1
:1012B0007B05121405900206E020E7030213D97B98
:1012C000057D077F0202136A12394C1239815003DF
:1012D00002139590020912396A121415900205EE54
:1012E000F0A3EFF030E137E47F837E5BFDFC9001FB
:1012F000E3E0F8A3E0F9A3E0FAA3E0FBC312076A76
:1013000070179002D3E0701674FFF09002CF74BB98
:10131000F09002D47401F080057B0712140D900246
:1013200006E030E2097B077D027F02124EFB90024D
:1013300006E030E3057B071213FD900206E030E47F
:10134000097B077D047F02124EFB900206E020E736
:10135000030213D97B057D077F02800E7B0CE4FD21
:101360007F0380067B0DE4FD7F03124EFB806A90B5
:1013700001F5E06003B401069001F5E004F090018E
:10138000F51239A17D0C7FF51244B1804C12394C15
:1013900012398150057E007F022290020912396ABB
:1013A000F912078E123D8B900204EFF0125064EF99
:1013B0007027900204E0B4030B7DC37FF07E7312AC
:1013C00040C28015800E900207A31239A17D097FCB
:1013D000F51244B17E007F6722E4FEFF22F9120776
:1013E0008E123D8B900205EEF0A3EFF0227B067F7C
:1013F00002124EFB227D027F02124EFB227D037FF2
:1014000002124EFB227D047F02124EFB227D017FE1
:1014100002124EFB22F912078E123D8B229002E23D
:10142000E06412600302152C9002FDE004F07006E7
:101430009002FCE004F09000F7E0FEA3E0FFC39010
:1014400002FDE09F9002FCE09E500302152C124228
:10145000D0C004C005C006C0071242F3E412037DE9
:10146000D003D002D001D0001242FC90008CE0FEEC
:10147000A3E0FF123D879001FDEEF0A3EFF0E490B2
:1014800002FCF0A3F09001FCE0F990003DE0FED3F7
:10149000994018EE1242E99DEA9400500990003DEF
:1014A000E0C39BF08005E490003DF090003CE0FF3D
:1014B000D39940151242F39FEC9400500990003CE0
:1014C000E0C39DF08066E480269000FAE024F6FFF9
:1014D0009000F9E034FFC3124308501990003C1209
:1014E00042E7C39DEA94005005C3EF9B8001E4905E
:1014F000003CF080379000FAE0240AFF9000F9E009
:101500003400D312430840249000FBE0FEA3E0FF28
:1015100074649FFDE49EFC90003CE0C39DE49C50FD
:1015200005E02FF0800690003C7464F07B017A01A6
:1015300079FB7F03123F009001FAEFF07003021570
:10154000C61242D0C004C005C006C0071242F3E470
:1015500012037DD003D002D001D0001242FC9001D2
:10156000FAE024F360461460582402705990003C5D
:10157000E0FFA3E0C39F5002EFF09001FCE0FF907A
:10158000003DE0FED39F503E9000FBE0FCA3E0FD59
:10159000C374649DFBE49CFAEEC39BE49A90003D07
:1015A0005005E02DF0801F7464F0801A90003D1209
:1015B00042E7C39DEA94005005C3EF9B8004E4809A
:1015C00001E490003DF09002E2E06408600302163E
:1015D000EE900018E0FCA3E0FDEC12037DA804A946
:1015E00005AA06AB077F007E807DBB7C46120262A7
:1015F0009001FC1207C8E4FFFEFD7C401242C112BC
:1016000002FF600C400A9001FC1207D44000000069
:10161000E4FFFE7D807C3F1242C11202FF500A901F
:1016200001FC1207D43F80000090003CE0FF7E00E8
:10163000A3E0FD7C00D39FEC9E4002AF0512520C4C
:10164000502B900078E0FD9464500C7C00ED9FECF2
:101650009E40047E00AF05900079E0FDD394645075
:101660000C7C00ED9FEC9E40047E00AF05D3EF9410
:1016700064EE940040047E007F64AD07AC06E41283
:10168000037D1242C11201591203B6D3EF9464EEE6
:10169000940040047E007F64D3EF9400EE940040F9
:1016A000177C007D0C120506EF7802CEC313CE1313
:1016B000D8F92464FFE43EFEEF2404FDE43EFC90F0
:1016C00002FAE0FAA3E0FBD39DEA9C500FEF24FC62
:1016D000FDEE34FFFCC3EB9DEA9C50129002FAEE43
:1016E000F0A3EFF075A1198EA38FA275A10922E5D1
:1016F000A630E509124CAF9002B61207C89002E27C
:10170000E0B40203D38001C3400302196A9002EDE2
:10171000E020E0028001C3400302196A9002BAE0AF
:10172000600214F09002BEE0B4160C9001FA74F559
:10173000F0A37455F080169002B6124D9C124CDA4C
:101740009002B61207C8E49001FAF0A3F09002BE2E
:10175000E0FBC3941750439002B6124D9CEB25E07A
:1017600024B0F582E43455F583E493FB740193903F
:101770000200CBF0A3EBF01235A79001FBE02FFFA6
:101780009001FAE03EFE9002BEE025E02402F582E0
:10179000E43400F583EEF0A3EFF09002B61207D424
:1017A000000000009002BEE0B40B28900018E0FE9C
:1017B000A3E0FFEE3395E0FDFCE47B04FAF9F812B8
:1017C0000629E47B05FAF9F81206B490028FEEF0D0
:1017D000A3EFF01230239002BCE004F0C3940A405F
:1017E0000EE4F09002BBE004F094054002E4F02027
:1017F00080059000168003900014E0FEA3E0FFC374
:10180000740A9FE49E501B74709F74179E4013903F
:1018100001E7E054DFF09000EB7401F0A3742CF0CA
:1018200080219000EBE07002A3E060109000ECE0FB
:1018300024FFF09000EBE034FFF080079001E7E038
:101840004420F090002CE0FCA3E0FDD39440EC6435
:1018500080949F400E201F02D21F9001E7E04401B8
:10186000F0800C301F02C21F9001E7E054FEF090A0
:1018700002BBE06404600302196AA3E06409600328
:1018800002196A900002E0FFA3E09000BCCFF0A331
:10189000EFF0900006E0FFA3E09000BECFF0A3EFD2
:1018A000F0900008E0FFA3E09000C0CFF0A3EFF0BD
:1018B00090000AE0FFA3E09000C2CFF0A3EFF09009
:1018C000000CE0FFA3E09000C4CFF0A3EFF0900085
:1018D00018E0FFA3E09000C6CFF0A3EFF090001A4D
:1018E000E0FFA3E09000C8CFF0A3EFF090001CE071
:1018F000FFA3E09000CACFF0A3EFF090001EE0FF3E
:10190000A3E09000CCCFF0A3EFF0900020E0FFA385
:10191000E09000CECFF0A3EFF0900022E0FFA3E034
:101920009000D0CFF0A3EFF0900024E0FFA3E09070
:1019300000D2CFF0A3EFF0900026E0FFA3E09000EC
:10194000D4CFF0A3EFF0900028E0FFA3E09000D602
:10195000CFF0A3EFF090002AE0FFA3E09000D8CFF3
:10196000F0A3EFF0A3ECF0A3EDF02290009A121B8D
:10197000A6900030EEF0A3EFF09000EAE0B401058D
:1019800090000080039000F3E0FEA3E0FF9001FCD4
:10199000EEF0A3EF122FC5A3CFF0A3EFF012520C7D
:1019A000501490006EE0FEA3E0FF9001FFE02FF0E6
:1019B0009001FEE03EF09000A2121BA6900200EE05
:1019C000F0A3EFF0D39001FFE09F9001FEE09E4076
:1019D00006900200122FA412520C4003021A6890C3
:1019E0000030122F8190006CE0FDA3E0900204CD46
:1019F000F0A3EDF0EF4E7019900204E07002A3E046
:101A0000700F900204F0A304F0900202E4F0A3042B
:101A1000F0900204E07002A3E0700D900202E0FF7B
:101A2000A3E0A3CFF0A3EFF09001FCE0FEA3E0FF62
:101A3000900204E0FCA3E0FD123DC0C006C0079088
:101A40000204E0FEA3E0FF900203E02FFF900202F9
:101A5000E03EAB07FAE4F9F8D007D0061206B4125C
:101A60004D39900200EE8007122FC6900200CFF091
:101A7000A3EFF090008CE0FEA3E0FF123D87D3EFD0
:101A800094A0EE940C401DD3EF94D2EE940C500D24
:101A9000900200E0C313F0A3E013F08007E490028B
:101AA00000F0A3F09001FE122FD14005EEF0A3EF5D
:101AB000F09000E8122FD14005EEF0A3EFF0900176
:101AC000FCE0C313FEA3E013FF123011C39FEC9E92
:101AD000500FC3EF9DFFEE9C900032F0A3EFF0801B
:101AE00004E4122FE99002A6122F81123011900106
:101AF000FEECF0A3EDF0C3EF9DEE9C5006900202C9
:101B0000122FA49002A4E0FFA3E0CF122F8790022F
:101B100002E0FEA3E09002A6122FB15004EE122FB5
:101B2000A99002A2E0FFA3E0900202CFF0A3EFF0A1
:101B3000900202E0FEA3E09002A4122FB1500890A0
:101B400001FEEEF0A3EFF09002A0122F819002A20E
:101B5000EEF0A3EFF0900200E0FFA3E09002A0CF30
:101B6000F0A3EFF09001FEE0FFA3E0900034CFF08F
:101B7000A3EFF01250D75005122FE2801C9000EB1B
:101B8000E07002A3E06018E4900034F0A3122FC5C7
:101B9000900032CFF0A3EFF0E49002A0F0A3F09019
:101BA00002A87401F022E0FEA3E0FF123D8722901C
:101BB0000201124B24A3E0FBA3E0FAA3E0124B1DA9
:101BC000900204124B2F6008900201124B2D7003FB
:101BD0007F0022124B11120437FF14603524FC5091
:101BE0000624057004802B800EAB07E490021BF0E6
:101BF0007D077FF51244B1124B11E4124B0E900099
:101C000002E41204E4E490020BF0A3F0900003124B
:101C100004E4900201124B141248A99216201610E7
:101C2000E490021BF0FB7D027FF51244B1021DBD62
:101C30007C01EC64016003021D05C2DDC2AF9002AD
:101C40001004F0A37402F0A3740AF0900201124B86
:101C5000141237C9AC07D2DDD2AFEC6401600302C5
:101C60001DBD124B1112043714603B046003021CAB
:101C7000F874011204D290020AE0FD64556079ED17
:101C8000B4AA02805A124B11123EA3EF640370688B
:101C9000124B11124B37FBE490021BF07D037FF5D2
:101CA0001244B17F0322124B11900003120450B46E
:101CB000011790020AE0FD123EA3BF03037F032237
:101CC000124B11900003E4801E90020AE0FDB4550F
:101CD0000A124B1174021204D2801DEDB4AA0D1227
:101CE0004B1190000374011204E4800C124B11128A
:101CF0003EA3BF03037F0322124B11120437640279
:101D00006003021C32124B11124B37C39405502250
:101D10007404124B0E124B37FB90021B7405F07DBE
:101D20000E7FF51244B1C3124B3D5003E004F002A4
:101D30001DBD124B11124B3724FE900237F090025A
:101D400007124B14E4FFFE123B8B90020BEEF0A344
:101D5000EFF0124B11124B3724FEFFE434FFFE90DC
:101D60000207124B148F828E831205C4FFAEF0124D
:101D70003D87AD07AC0690020BE06C7003A3E06DED
:101D8000602D124B1174041204D29002D3E070172C
:101D90007413F0EC9002CFF0FEAF057C007DFF12D3
:101DA00005189002D4EFF0D3124B3D4010800B90F9
:101DB00002B5E0FF74FFD39F4003E004F0124B1123
:101DC000120437FF22900225EFF09002271207D469
:101DD000FFFFFFFF1226986003021E74900225E0A9
:101DE000A3F01227025037EF12266FF583E0B4FFFD
:101DF0001412268AF583E0B4FF0B124D0C500690A6
:101E00000226E0FF22900225E0FFA3E0FEB50704D2
:101E10007F098003EE04FF900226EFF080C4900259
:101E2000267409F01227025056EF12266FF583E050
:101E300064A5703B12268AF583E0FF90022BF01216
:101E400052F5A3122646900226E0FF1252F5AA068A
:101E5000A90790022F12264A12270B12508112272F
:101E60000BA3122666F99002377480F012455212C5
:101E7000273880B09002D3E0700574411227237E8A
:101E80000B7F80C006C0079002341207D400000008
:101E900000D007D00612406A122679123B8B900BB5
:101EA000A6E0B5060EA3E0B5070912265490022756
:101EB0001207C87E0B7F801250817E0B7FA2C00666
:101EC000C0079002271226579002341207C8D00785
:101ED000D00612406A7A02792712267D123B8BAC1B
:101EE00006AD077E0B7FA61245EDE4900226F0902A
:101EF0000226E0FFC394095026124D0C401C9002AC
:101F000026E0FD12268EAF82FE1251769002261236
:101F1000266EAF82FE7DA512517612273880D090B2
:101F200002267409F01227025015124D0C400B9036
:101F30000226E0FF1252F512508112273880E67E09
:101F40000B7F80C006C0079002341207D4AFFE5545
:101F500042D007D00612406A900225E0FF124D0CD5
:101F60005006900225E0FF227F09124D0C40087FA9
:101F7000091252F51250817F09229001831239997A
:101F8000900204C912397990018A12396AF9121B38
:101F9000AF9001FCEFF0606014605D14601824FEE7
:101FA0007049120026123967F9900002120450128B
:101FB00039A27D04803D1239679001FE123972907A
:101FC0000002120450FF1252321211379001FDEF3D
:101FD000F0600D1200269001FD1239A17D058013DD
:101FE0009001F5E0B40211D211800D9001FC12397C
:101FF000A17D077FF51244B17B017A0179FB7F0651
:10200000123F009001FAEFF070030220ECE024F19F
:10201000B4200040030220DF90202675F003A4C501
:102020008325F0C583730220EC0220EC0220EC0231
:1020300020EC0220EC0220EC0220EC0220EC02203A
:10204000EC0220880220CD0220EC0220DF02209248
:102050000220EC0220EC0220EC0220EC0220EC0238
:1020600020EC0220970220A00220A90220B2022028
:10207000BB0220C40220EC0220EC0220DF0220EC94
:102080000220EC0220DA80641243147F0112538F85
:10209000805A124FCD80559001E7E04402F0804C09
:1020A0009001E7E04404F080439001E7E04408F049
:1020B000803A9001E7E054FDF080319001E7E05470
:1020C000FBF080289001E7E054F7F0801F90028C2D
:1020D000E0FEA3E0FF1251D08012120036800D9076
:1020E00001FA1239A17D097FF51244B130110A308D
:1020F00010077F337E2B127400229002E2E0640B03
:10210000703A9002ECE024FC601B24FE601B24FE6D
:10211000601B24FC601B24FE601B240C6003022255
:102120000A7B1D80127B1E800E7B1F800A7B208015
:10213000067B2180027B227D010221CB9002E2E01E
:10214000B40D239002ECE024F6601724F66013240B
:10215000F6600F24F6600B24F66007243260030259
:10216000220A7B1380269002E2E0FC640C7023902C
:1021700002ECE024FD600F24FE600F2404600302E3
:10218000220A7B1080067B1180027B12E4FD7F0512
:102190008075ECB40E0E9002ECE0FF6417606BEFFC
:1021A000643580669002E2E0B40F249002ECE024F3
:1021B000F1601424F6601024F6600C24F660082404
:1021C000F66004243270437B147D027F06803890D1
:1021D00002E2E0B4101C9002ECE024F0600C240356
:1021E00070287B157D027F06801D7B167D027F0691
:1021F00080159002E2E0B411119002ECE024EF703F
:10220000097B177D027F06124EFB7B017A0179FA6A
:102210007F01123F00EF24FE600E14600D14602653
:1022200024EC602B2417702A80251222617B051272
:1022300022537B060D1222537B050D7F02124EFBAB
:102240007B057D0780047B06E4FD7F02024EFB12C6
:102250002261227F02124EFB7B050D7F02124EFB94
:10226000227B0FE4FD7F05124EFB1251BA22900330
:102270002DE0B40702C322A21D90021112352912CB
:10228000502990020B12353A7F021246C7EF6002C6
:10229000C3221235431249E390020E12353AA312BB
:1022A000351C123589FF123561C39F24FC90020A48
:1022B000F090032EE06073123519F9E41204D21283
:1022C0003519F9E412359290020AE0FF90032EE0EE
:1022D000FDC003C002C0011235192402F9E43AFA24
:1022E00090021912353AD001D002D0031227509033
:1022F000020AEFF060281235191235572402FF90B8
:10230000021112351C12359890020B12351CF9126D
:10231000043744421204D2E490032EF0D322123543
:10232000A07D0B7FF51244B1C322E55945584557AE
:102330007002C322123519F9E5521204D290020A32
:10234000E0C395534025AF5312356EC003C002C0A1
:102350000112351912357ED001D002D003120A9C29
:10236000123519F9900001E553802A90020AE0FF26
:1023700012356EC003C002C00112351912357ED06D
:1023800001D002D003120A9C90020AE0FF12351914
:10239000F9900001EF1204E41235191235572402A6
:1023A000FF90021112351C1235981235191235574B
:1023B000FF2552F552C3955B4008E4F552855B5307
:1023C0008006C3E5539FF55390020B12351CF9129A
:1023D000043744021204D2D322E490020DF0A3F099
:1023E000A21D12354690021212353A900212123591
:1023F0001C4A4B7002FF2290021212351CF9125037
:102400002990020A12353AE556455545546013ABFA
:1024100054AA55A956120437FF90020A12351C120D
:10242000359090021212351C12356790020F12354A
:102430003A9002D3E07041E55AB4FA229002B2E039
:10244000FDA3E0FB9002B5E090021BF07FF0124488
:10245000B1E49002B2F0A3F09002B5F08039E55AF1
:1024600064FC70339002B4E0FD1235A07FF2124498
:10247000B1E49002B4F0801F9002D3E0FF9002CF4D
:10248000E0FD9002D4E0FB9002D5E090021BF01238
:1024900044B1E49002D3F0AF5A055A90020A1235C3
:1024A0001CF9900003EF1204E4E551600E90000265
:1024B0001204E412043744081204D2301E0F9002B2
:1024C0000A12351CF912043744101204D2C21EE459
:1024D000F55190021212351C123589900237F09096
:1024E000020F12351CF9E4FFFE123B8B90020DEE39
:1024F000F0A3EFF090021212351CF9EFFD124367C2
:1025000090021212351CF990020DE0FD1243679003
:10251000021212351CF9900002E41204E474031252
:1025200004D2301703123DE790021212351CF91243
:102530000437FF229002F0EEF0A3EFF0F5828E83D5
:10254000E09002F2F0AE04AF05AA06A9077B0112E3
:1025500029459002F3EEF0A3EFF09002F2E0FC6464
:1025600069702C1250BB7451F074441226387008F4
:102570001250CF900000806E1250BB7451F074491D
:1025800012263870081250CF9000F38059C322EC05
:10259000644470171250BB7451F0744E12262A70A6
:1025A000081250CF9000F5803DC3229002F2E0FC6B
:1025B000644970371250BB7451F0745212262A705D
:1025C000081250CF9000FB801D1250BB7451F0A335
:1025D0007456F0A3E4F0A37403F01236BCEF700954
:1025E0001250CF9000F7CF8037C322EC6450703880
:1025F0001250BB7451F0A3745AF0A3E4F0A3740218
:10260000F01236BCEF701F9002F3E0FEA3E0FF7CF7
:10261000007D0A120506EF24ACFFEE340A9000F9A3
:10262000F0A3EFF0D322C322C322A3F0A3E4F0A3CC
:102630007403F01236BCEF22A3F0A3E4F0A37404F9
:10264000F01236BCEF22AA06A9077401F0A3EAF043
:10265000A3E9F022900BA2E0FCA3E0A3FDE0FEA31F
:10266000E0FF22900213E0FBA3E0FAA3E022E025C2
:10267000E02484F582E4340B227A0B79A27B01906A
:1026800002377404F074FFFFFE22900226E025E07A
:102690002485F582E4340B227F427E557DFE7CAF9B
:1026A000900B80E0F8A3E0F9A3E0FAA3E0FBC302FB
:1026B000076AE0C39DFFE49CFEA3E0FCA3E0AA043C
:1026C000F97B0122900222E02FF0900221E03EF0FF
:1026D000900224E02FF0900223E03EF022F0EB5431
:1026E0007FFFA3F0C374809FFFE49400FEC3ED9FBF
:1026F000EC9E227440F09002CF7401F0E49002D47A
:10270000F022900226E0FFC3940F2290022CA3E057
:10271000FAA3E0AE02FF22FD7C002FFFEC3EF0A307
:10272000EFF022F0E49002CFF09002D4F022FFFD0F
:102730007C00EC8DF002056D900226E004F022E0B2
:10274000FAA3E0FBAE02780722F9A3E0FDA3E022A2
:102750009002161239787563737564FEEFC3940E98
:1027600050037F002290021912396AF9ED1204D247
:102770009001F6E0FEA3E0FF4E6023123D878564E2
:10278000828563837401936F7003E4936E600F908E
:10279000021912396AF912043744101204D2125184
:1027A000E49000F1E06E7003A3E06F600F900219F7
:1027B00012396AF912043744201204D212398DFBFF
:1027C000D312075450071239A9EC33500F90021955
:1027D00012396AF912043744401204D290021612D8
:1027E000396AF9900001740E1204E490021912394A
:1027F0006AF990000174451204E49000EDA3A3A3CC
:10280000E09000021204E49001F6E0FFA3E09000E3
:1028100003CF8FF01205FCE92405F9E43AFA90029F
:102820001F74FFF0A37453F0A3744FF0A3E4F0A35C
:102830007409F0123BF590021912396AF990000DF3
:10284000E41204E490021612396AF99000011204AD
:1028500050FF22123D488EF01208052893000028F0
:102860009C005A28A6015428BB015E28BB01682899
:10287000BB017228BD017C28BD018628BD019028BE
:10288000BD019A28BD01A428CD01A528DA020800BF
:102890000029449002847404F0024E12123D73FD2C
:1028A0007BAA7A008031900291E0FF1253039002DC
:1028B00091E0FFD216123F5DD2142280089002915F
:1028C000E0FF123C5D900291E0FF025303123D7362
:1028D000240AFD7BF47A0102512A30140B123D3B8D
:1028E0001248E8123D50804C900284E0601614F0CB
:1028F000900291E0FFC216123F5D900299E4F0A3AE
:1029000004F08030123D3B1248E89002D3E070059D
:102910007460123D29123D509002D3E0701674820B
:10292000F0900291E0FF7401A807088002C333D839
:10293000FC123D5F7B157D027F06124EFB7B167FEE
:1029400006124EFB229002F5EBF0A3EAF0A3E9F0A9
:102950009002F5E0FBA3E0FAA3E0F9120437FF12BE
:1029600051F8500C9002F6E475F00112056D80E00C
:10297000D2229002F5E0FBA3E0FAA3E0F9120437BB
:10298000FF642B6004EFB42D1D9002F5E0FBA3E47F
:1029900075F001120583A9F0FA120437642D600363
:1029A000D38001C39222E49002F8F0A3F09002F5E4
:1029B000E0FBA3E0FAA3E0F9120437FF1252CA5079
:1029C000429002F5E0FBA3E0FAA3E0F9120437FF1E
:1029D0003395E0FEEF24D0FBEE34FFFA9002F8E0EE
:1029E000FEA3E0FF7C007D0A120506EF2BFFEE3A06
:1029F0009002F8F0A3EFF09002F6E475F0011205F2
:102A00006D80AA30220A9002F8E0FEA3E0FF800F5A
:102A10009002F8E0FEA3E0FFC3E49FFFE49EFE22E5
:102A2000900219EB12264CA3EDF0FF121DC5900287
:102A30001FEFF090021CE0FF1243BA900220EFF06B
:102A400090021FE0FF1252F5900221EEF0A3EFF08A
:102A5000900220E0FF1252F5900223EEF0FCA3EF6B
:102A6000F090022112265CAA04A9057B0190021DA8
:102A7000E0900237F012455290021DE0FF7E0012F6
:102A800026C4900219122666F990021DE0FDA3E00B
:102A9000C39D900237F0900221E0FEA3E0FF1245B3
:102AA0005290021DE0FFA3E0C39FFFE49400FE12DA
:102AB00026C4900221E0FEA3E0FF1226B990021E78
:102AC000E0FDC374809D900237F012455290021FC2
:102AD00012268DAF82FE90021CE0FD12517690020C
:102AE0001F12266EAF82FE7DA51251769002201233
:102AF000266EAF82FEE4FD025176900263E0FC7028
:102B000079900266E0FF2451F582E43402F583E017
:102B1000900263F030E31A743F2F124420E0655CAA
:102B2000603F9002D3E0700612440D7404F002007E
:102B300003900266E0FF12441EE55CF0900263E041
:102B400030E41EE55C2F9001F9F0301903E004F049
:102B50009001F9E0FFC3941250077B037DFF124BF5
:102B60009F124E62900266E004F0900263E07F8064
:102B700030E0027F007D010252E7EC30E20BE55CC1
:102B800030E00612533BD21A22900263E0FF30E19C
:102B90000302533BEF30E50A125331900263748015
:102BA000F022EF30E60B900265E0FFA312441DEF28
:102BB000F090026612441DE0FF7D081252E7E49097
:102BC0000263F0224102BC004102BB004102BE0090
:102BD0004102BF004102BA004102BD00C11F4102D3
:102BE0009F0041029B05C18A41029C0C011800C153
:102BF00001C180C103011900011A00C105C102C150
:102C0000844101F500C112C111C1104401E300006B
:102C1000000042017F0000022500004200EB00009E
:102C20004200FB00014200F500014200F7001E4295
:102C300000F90C3C4200E80FA04200000BB8420033
:102C4000F3138842028C000042028600C8420292BE
:102C500000C842029705DC41032F00C1864302AF42
:102C60000000004302AC00000041032D00015A00A7
:102C7000064B000000000000C11D035700000001CA
:102C80005B0041032E004102EA000020052DE51AF9
:102C9000700CD205C202F51DF51E75990222E51AC7
:102CA000B40103759910E51AB40203759903E51A86
:102CB000C394034003D20422051A22E519C39440A9
:102CC00040139002D3E06003022D4D7406F0900291
:102CD000CF74018015E51AC3951940129002D3E014
:102CE000706B7406F09002CF740212532A22E51919
:102CF00024FEB51A04E51E8008E51914B51A08E586
:102D00001D9001F8F08020743E251AF582E434010C
:102D1000F583E09001F8F020020DE0FDAF1EAE1D3E
:102D200012509E8E1D8F1E300206C202051A800DA3
:102D30009001F8E0B41004D2028002051AE51AB539
:102D40001905C205751A019001F8E0F59922900263
:102D5000E2E0640770289002EBE020E02130041EDE
:102D60009002FFE0FF04F090013EEFF07E017F3F14
:102D70007C007D027B3C123D927F3D12527A900393
:102D800000E475F00112056DFED3E5F094E8EE94D1
:102D900003400C9003007403F0A374E8F0801D90CE
:102DA0000300E0B40316A3E0B484119002D3E070F2
:102DB0000B1253737410F0E49002D4F030034FE51B
:102DC00018643D70357E007F3E7C007DFE7B3C12AA
:102DD0003D929002FEE0FF9000FDE0FE6F600EE489
:102DE000900300F0A3F09002FEEEF0801E9002D35C
:102DF000E070181253737411800B9002D3E0700BC3
:102E00001253737412F0E49002D4F01253A822AB60
:102E10009930016EC201EBB4021F20030AC200E424
:102E2000F518F51BF51C229002D3E06003022EC4B6
:102E30007405F0740112532722EB6403702BE51C18
:102E4000451B7014E518D394024006151815188018
:102E500003E4F518D203800E9002D3E070087405E5
:102E6000F07402125327D20022EB6410601B900210
:102E7000D3E0700B7405F09002CF740312532AD282
:102E80000022EBB41003D20122200038E518C394CD
:102E900040501FAD0BAF1CAE1B12509E8E1B8F1CE3
:102EA000AF0B74FD2518F582E43400F583EBF005D3
:102EB00018229002D3E0700A7405F09002CF141229
:102EC000532AD200229002BAE060459002BDE0246D
:102ED000FA601724FE601D14602414602B24057012
:102EE0002FED20E02BE4FDFF8026ED20E0227D0287
:102EF000E4FF801CED20E018E4FD7F018012ED204E
:102F0000E00E7D027F018008ED20E004E4FD7F02F9
:102F1000EDC313FEEF25E02EFEC330E001D392B5E2
:102F2000EEC330E101D392B6EEC330E201D392B7E3
:102F3000EFC394054006EF24FBFE8002AE07EE25AA
:102F4000E0FEED1460101460131460162403701674
:102F500074062EFE8010740E2EFE800A74072EFE5C
:102F60008004740F2EFEEFC3940440027E1790027B
:102F7000BFEEF0227430F090029DE0FCA3E0FDEC87
:102F800022E0FEA3E0FFEE900202F0A3EFF0229019
:102F9000029D7416F0A3229001FAEEF0FAA3EFF06E
:102FA000FBC21722E0FFA3E0CF9001FEF0A3EFF0F9
:102FB00022FFEEF0A3EFF09001FEE0FCA3E0FDC3E2
:102FC000EF9DEE9C22F09001FCE0C313FFA3E01301
:102FD00022E0FEA3E0FFD3900201E09F900200E018
:102FE0009E22E4900034F0A3F0900032F0A3F0228F
:102FF000A3F0A3F0A3F0A3F0229002CFF0ED900293
:10300000D4F0227430F09002CFE9F09002D4EFF0C7
:1030100022900200E0FCA3E0FD227E007D007B0107
:103020000208329002BBE0FFB4040FA3E0B4090A27
:103030009002BE7416F075D7FF229002BCE0B40A6D
:103040000040030230CF90304DF828287302306BD7
:1030500002307102307E02308702309302309C02CF
:1030600030A60230B20230BB02309375D728E4801C
:103070005A75D7389002BE7401F0E4FD804A75D7C6
:10308000089002BFE0804475D7487402124DA87DB5
:1030900001803575D7189002BFE0802F75D7589002
:1030A00002BE7403F02275D7687404124DA87D0225
:1030B000801675D7089002BFE0801075D77890020F
:1030C000BE7405124DAB7D03022EC59002BEF022E8
:1030D000D217EF70030231719000DDE004F070064A
:1030E0009000DCE004F0900267E0FF24FE601D1415
:1030F000602A1460371460442404704E9000DFE0AE
:1031000004F070469000DEE004F0803E9000E1E0C4
:1031100004F070369000E0E004F0802E9000E3E0D0
:1031200004F070269000E2E004F0801E9000E5E0DC
:1031300004F070169000E4E004F0800E9000E7E0E8
:1031400004F070069000E6E004F0900264E0D3948E
:10315000015004D217801A9002D3E0700D7420F051
:103160009002CFEFF0E49002D4F0E49002D5F0C2E8
:1031700017E4900264F0A21722124DE94A4B700343
:10318000C21C22124DE92405F9E43AFA90032712F1
:103190004E02301B219002AFA3E0FAA3E0124E0BC7
:1031A000FF900327124DECF98F82758300120450B3
:1031B000F5C1C21B805E124DE9F990000212045065
:1031C000FF124E0CFEC39F402B9002B4E0FF74FF31
:1031D000D39F4003E004F075C155124DE9F9125335
:1031E0000F124DE9F974011204D29002AF14F0A34A
:1031F000F0A3F022900327124DECF98E8275830024
:10320000120450FF64556004EFB4AA0675C1AAD237
:103210001B228FC1124DE9F9900004740112049F22
:1032200022A2DDE433FAC2DDD297000000A2979219
:1032300009A2969207A29612504712504792083060
:103240000908A207300801B35016E5601560700246
:10325000155F14455F7019125361FF124012801000
:10326000E56130E00E5361FE1253617F011240129E
:10327000EA8047E56130E10A5361FDC2967F04129E
:103280005399C29700E55C25E0F55C7F00300702AA
:103290007F01EF425CE55E700D122AFAE55ED39481
:1032A000014003756232E55E600DE55D339296E59F
:1032B0005D25E0F55D155EAF0AEA24FF92DD227818
:1032C0007FE4F6D8FD9000007F007E04E4F0A3DFE9
:1032D000FCDEFA75650075816502331702335CE424
:1032E00093A3F8E493A34003F68001F208DFF4808F
:1032F00029E493A3F85407240CC8C333C4540F44DF
:1033000020C8834004F456800146F6DFE4800B01B8
:1033100002040810204080902BC4E47E019360BC1E
:10332000A3FF543F30E509541FFEE493A360010E50
:10333000CF54C025E060A840B8E493A3FAE493A377
:10334000F8E493A3C8C582C8CAC583CAF0A3C8C598
:1033500082C8CAC583CADFE9DEE780BE123A43905D
:1033600001FE1207D400004B007F007EC07DA87CC8
:103370000012384E12518E12521F1253A1124ED605
:103380001253451250F312500B124F4312348A124B
:1033900053AE12000E1253A51251A412510F124D2A
:1033A000BFC29012510FD29012445F123634900275
:1033B000E2E0B4041F90032FE0D3940340107B1C81
:1033C0007D057F06124EFBE490032FF080069003EC
:1033D0002FE004F01216EF121F7A1220FA122D4E6F
:1033E000120E49120B0E12141D123B20124FAB503D
:1033F000B012529A80AB90020CEEF0A3EFF0900264
:1034000013EB12264C900211E0FCA3E0FD4C607916
:1034100090020C12273FCEC313CE13D8F990021698
:103420001226DD500C900211E0FCA3E0AE04FF80F8
:1034300000900218EFF012266312274990021DF047
:103440002FA3F012470EEF6019122663122749FFCF
:1034500090021DF0900218E0FEEF2E90021EF01276
:103460002A20900218E090021412272E90020DE0FC
:103470002DF090020CE03CF0C3900212E09FF0901F
:103480000211E09400F0023405227A01798D1235A0
:103490000C9001FA1239787A0179B812350C900142
:1034A000FD1239789001FD123999900203C9123941
:1034B000799001FA12396AF9124EB07B007A0079DC
:1034C000277D2412468090018A123978124F667B3C
:1034D000017A0179E87D0D12450290018312397855
:1034E000E49001E7F07B017A0179E71253887A00D2
:1034F00079827D6612528A9001861207D4000000FC
:10350000001243141239B5A3F0A3F0227B01E4901A
:103510000204F07D2B12479B2290020EE0FBA3E0F9
:10352000FAA3E022A21D900215E43375F003A4244F
:103530004BF8860308E6FA08E6F9EBF0A3EAF0A3F5
:10354000E9F022A21DE43375F003A4244BF88603AE
:1035500008E6FA08E6F922F9900001020450120484
:10356000E49000030204502405F9E43AFA227E00B4
:10357000AB577C00E5592552F9EC3558FA22240264
:10358000F9E43AA801FCAD0322F9900004020450CA
:10359000F9EF9000010204E4F9EF90000402049FA7
:1035A000E490021BF0FB229001FC1207C89001FC82
:1035B000E0FCEC3350028001C3921630160F9001EC
:1035C000FC124D9C1207469001FC1207C89001FCAA
:1035D000A3124DA112362A124D937810124DB2E06B
:1035E000F8A3E0F9A3E0FAA3E0FBC000C001C00229
:1035F000C0039001FC124D9C781012077B12362AF2
:10360000D003D002D001D000EB2FFFEA3EFEE93D0F
:10361000FDE83CFC124D937808124DB230160612AC
:103620004D9C020746A3124DA122A3E0FCA3E0FD9E
:10363000123DC022E49002E2F09002EDE0FF900221
:10364000DFE06F6008EFF09002DE7401F09002EBB3
:10365000E0FF9002E1E06F6008EFF09002E0740696
:10366000F09002ECE0FF9002DDE06F6008EFF09078
:1036700002E3740AF09002DEE0601004F0E0FFC3A1
:1036800094055002802AE49002DEF09002E0E060AF
:103690001004F0E0FFC3940950028014E49002E0AB
:1036A000F09002E3E0601404F0E0FFC394145006CD
:1036B0009002E2EFF022E49002E3F0229002C0EBED
:1036C000F0A3EAF0A3E9F09002C3E0FBA3E0FAA3C1
:1036D000E0F9120437FE9002C0E0FBA3E0FAA3E099
:1036E000F9120437FF6E702AEF600E9002C674FF65
:1036F000F5F012056D45F070037F00229002C1E4E1
:1037000075F00112056D9002C4E475F00112056DAB
:1037100080B59002C0E0FBA3E0FAA3E0F912043701
:10372000FDD3EE6480F8ED64809840037F01229021
:1037300002C3E0FBA3E0FAA3E0F9120437FFC3EDF4
:103740009FFF2230B22E900292E0FEA3E0FFC390D2
:10375000028DE09F90028CE09E40111237B87B27CB
:103760001237C27B257D037F06124EFBE490028C4C
:10377000F0A3F02290028DE004F0700690028CE03D
:1037800004F0900292123D7DB50613A3E0B5070E3A
:103790007B28E4FD7F06124EFB7B231237C290028A
:1037A00097123D7DB50610A3E0B5070B1237B87B25
:1037B000240D7F06124EFB227B26E4FD7F06124E6F
:1037C000FB220D7F06124EFB2290020D124C8B2421
:1037D00004F9E43A900213124C8A90020D124C82C2
:1037E0004A4B70037F032290020D124C82F9124C57
:1037F0009DC3940150037F032290020D124C82F965
:10380000124CA3FF900213124C82F98F8275830031
:10381000120450FF900210124C82F9EF1204D29061
:10382000020D124C82900001124CA990000374FF0B
:1038300012049F124C95124CA3C39F400E90020D90
:10384000124C82F9900001E41204E47F01229001FD
:10385000FA1207C875C070D2DF438E10E588543F56
:103860004440F588E589540F4420F5897F407E78EF
:103870007D7D7C019001FA124DF7FBC312076A703F
:1038800019FF7E4BFDFC124DF4FBC312076A700555
:10389000758DEC8031758DD9802C124DF4FB900123
:1038A000FAE0FCA3E0FDA3E0FEA3E0FF1206B4E40F
:1038B0007B10FAF9F81206B4E47B04FAF9F8120660
:1038C000B4EFF404F58DC2C0C2C1D2AED2AF229023
:1038D000029DE0B4120DA3E0B41308123945900024
:1038E000868024122F7764167059ED9001FCF0D376
:1038F000941C5006E490029FF0229001FCE0B42F4B
:103900000D1239459000AAEEF0A3EFF0D3229001FA
:10391000FCE0FFC3943C402BEFD3943F5025E024C0
:10392000C4F0125257123D877B017A0079AC9001A6
:10393000FCE075F002A4F58285F083EE8FF01205AD
:10394000FCD322C322125257123D8722900201E07B
:10395000FBA3E0FAA3E02403F9E43AFA900209EBAE
:10396000F0A3EAF0A3E9F0900183E0FBA3E0FAA35F
:10397000E0222404F9E43AFAEBF0A3EAF0A3E9F038
:1039800022F990000212045014C3940422E47F012F
:10399000FEFDFC9000EDE0F8A3E0F9A3E0FAA3E05F
:1039A00022E0FBE490021BF0229000EDE0FCA3E09B
:1039B000FDA3E0FE22E49001F5F0C211C21022C383
:1039C000E52694FEE5259473229001FDECF0A3ED2D
:1039D000F0900201EB12264C9001FFE0FCA3E0FD09
:1039E0004C605F9001FD12273FCEC313CE13D8F970
:1039F0009002041226DD500C9001FFE0FCA3E0AE23
:103A000004FF8000900206EFF09002011226661279
:103A1000274990020BF02FA3F01247E0900206E036
:103A200090020212272E9001FEE02DF09001FDE0A1
:103A30003CF0C3900200E09FF09001FFE09400F0A2
:103A40008096227D017F01124C1A7D0C7F02124C60
:103A50001A7D017F03124C1A7F04124C1A7F051243
:103A60004C1A7D067F06124C1A7B18E4FD7F061265
:103A70004EFB20B4377B057F02124EFB7B050D7F8A
:103A800002124EFB7B060D7F02124EFB7B050D7F63
:103A900002124EFB7B050D7F02124EFB7B057D075C
:103AA0007F02124EFB9000EA7401F022E49000EADB
:103AB000F02290020112353A7F011246C7EF6002F0
:103AC000C32212354390020412353A125029900253
:103AD0000712353A12226E90032DE064066038908A
:103AE000020112351C4A4B602EA312351C123557A9
:103AF000FF7E0090020712351C24081235809002C8
:103B00000112351CF9120A9C90020712351CF91299
:103B1000043744011204D2A21692171223D9D322D9
:103B2000E49001FAF09001FAE0FF04F0EFC394038F
:103B300050301239BF502B90017FE0FEA3E0FF050B
:103B400026E526AC257002052514AA04F97BFF9012
:103B500002377401F0123B8B90017FEEF0A3EFF07F
:103B600080C31239BF402390017FE0FFA3E09001A2
:103B7000F6CFF0A3EFF0E490017FF0A3F0F525F588
:103B8000267B2E7D057F06124EFB2212536AA3EB85
:103B9000F0A3EAF0A3E9F0900237E0FF14F0EF6041
:103BA0004B900232E0FCA3E0900238F0E0FF90027C
:103BB00034E0FBA3E475F001120583A9F0FA1204C6
:103BC000376F900238F0ECFF7E0012536A90023893
:103BD000E075F002A424B0F582E5F03453F583E4F7
:103BE00093FE7401936FFF12536A80AB900232E030
:103BF000FEA3E0FF2290021CEBF0A3EAF0A3E9F0A1
:103C0000E4900224F0A3F090022274FFF5F0120574
:103C10008345F0603C90021FE0FBA3E0FAA3E0F9CB
:103C2000120437FF90021CE0FBA3E0FAA3E0F99036
:103C30000224E475F00112058385F082F583EF120A
:103C400004E4EF60C2900220E475F00112056D807B
:103C5000B690021CE0FBA3E0FAA3E0F922EF24FDFA
:103C60006022146034240224F75058240A7045124C
:103C70003D69900003E09D900002E09C4003D380EA
:103C80002EC3802B123D69900009E09D900008E052
:103C90009C4003D38001C3801690028A123D6C9031
:103CA000000BE09D90000AE09C4003D38001C3829A
:103CB000149214229002D3E0700904F09002CFEF26
:103CC000123D62229002E4124C8B2404F9E43AA3E0
:103CD000124C8A124C7F4A4B70037F0222124C7F97
:103CE000124C94124C9DC39F40037F0222124C7FC2
:103CF000F9120437FE9002E7124C82F98E82758326
:103D000000ED1204E4124C7F900003124CA97401E0
:103D100012047D124C7F124C94120437C39F40044E
:103D2000E41204D27F01227481F0900285E09002B7
:103D3000CFF0900291E09002D4F022900285E0FD55
:103D4000900291E0FB7F0222900299E0FEA3E02224
:103D5000E4900285F012531B90028E740AF02290B8
:103D600002CFF0E49002D4F02290028FE0FCA3E0B6
:103D7000FDC322900291E0FF900284E022E0FEA3C6
:103D8000E0FF90028CE022EECFCE22EECDCEEFCC43
:103D9000CF22EB700122EFF584EEF585EDF582EC94
:103DA000F583758600E0A30586F0A30586DBF62281
:103DB000EB700122EFF582EEF583EDF0A3DBFC2240
:103DC000EF8DF0A4ABF0CF8CF0A42BFB740035F09A
:103DD000CD8EF0A42BCEC5F03DFD74003400CCA4F4
:103DE0002DFDE5F03CFC2290032DE06404605512AB
:103DF000352490021512351C4A4B6048900215126A
:103E0000351CF91204376403703A12411A921830C3
:103E10001832201D04D21D8002C21D123524124208
:103E200019921830180A90021512351CF90245A192
:103E300090021512351CF91245A11235A07D017FA3
:103E4000F51244B12290030A1207C8E4FFFEFD7C7C
:103E50004F90030A124AA11202FF40169002D3E0CB
:103E600070087407F07405124AAD74FFFFFEFD7C04
:103E70007F22E4FFFEFD7CCF90030A124AA11202CA
:103E8000FF600250149002D3E070077407F0141220
:103E90004AADE4FFFEFD7C802290030A124AB7126D
:103EA00003B62290020D124B24124B1D90020D12EC
:103EB0004B2D7002FF2290020D124B149000011244
:103EC0000450FF124B37FEC39F501F900210124B3D
:103ED000148E82758300ED1204E490020D124B14CF
:103EE000900002740112049F800B90020D124B147B
:103EF00074031204D290020D124B14120437FF22E5
:103F0000900201124E45124755A3124E45E4FF9010
:103F10000204124E3D4A4B60387E01900204124E5C
:103F20003DF9120437FDEED39D50268E8275830035
:103F3000120450FD6018AF058E82758300E41204F0
:103F4000E4EE14FE900201124E3DF9EE800B0E805D
:103F5000CA900201124E3DF9E41204D222EF14B4C9
:103F60000A005045903F7275F003A4C58325F0C543
:103F70008373023F90023F95023F9A023F9F023FA8
:103F8000B8023FB8023FA4023FB8023FB8023FB8B0
:103F9000A216928122A216928222A216928322A2B5
:103FA00016928522A21692A0229002D3E0700904F4
:103FB000F0900285E0123D5F2230135590003AE008
:103FC000FF604E301510900294E0FDA3E09002993E
:103FD000CDF0A3ED801F900076E0B5071CA3E0FFB5
:103FE00090003BE0B50712900294E0FFA3E090023E
:103FF00099CFF0A3EFF0C21322900294E0FEA3E069
:10400000FF900299E0B50609A3E0B50704D215C2F6
:104010001322C0D075D008EF700E9002D3E0703B31
:1040200012440D7403F08033EF6401702C301A10C9
:104030009002D3E0700612440D7405F0E4FF801B7B
:10404000301918900265E060129002D3E0700612F9
:10405000440D7402F0E4FF80027F01EF7F026002F2
:104060007F01900264EFF0D0D022900238124857BE
:104070007402F0743412483E12482512486212FF4E
:10408000DD1248259000011240B812482590000228
:104090001240B8900238E0FEA3E0FFA3124835902A
:1040A0000003120450FD7B0112FFDD90023EE0F59B
:1040B000D890023DE0F5A822120450FD7B0112FFCA
:1040C000DD2290020CEEF0A3EF12483F90020CE0CC
:1040D000FEA3E0FFF5828E83E493900210F0758FCB
:1040E00001E4FB12FFDDE4F58F90020FE0F5D890BC
:1040F000020EE0F5A890020CE0FEA3E0F5828E83AC
:10410000E493FF9002D3E0701074FFF09002CFEFC1
:10411000F0900210E09002D4F022900218124E02A9
:10412000301C02C322900218124DEC4A4B7002C39D
:1041300022900218124DEC124E0B7002C322900214
:1041400018124DFA9002AFC9124E03124DE9F974DC
:10415000041204D2124DE9124E0B9000021204E434
:10416000900004E41204E475C155C21BD21CD32292
:1041700090030E1207C8E4FFFE7D807C4F90030E73
:10418000124AA11202FF40109002D3E07006740799
:10419000F0124AAD74FF801EE4FFFEFDFC90030E9A
:1041A000124AA11202FF50139002D3E07007124A84
:1041B000C304124AB0E4FFFEFDFC2290030E124A33
:1041C000B71203B6229001FCEAF0A3EBF0AE059023
:1041D00002647404F0A2179219E4A3F0EF54FEFDF8
:1041E0007B0CE4FF124B9FAF06AD077F01124B9F84
:1041F0009001FCA3E0FD0F124B9F9001FCE0FD7BC2
:104200000E0F124B9F30190B900254740CF07B4E22
:10421000124459124428024FEC90021812353A9079
:10422000021812351C4A4B7002C322900218123534
:104230001CF9123561FF123558C39F4001229002CC
:104240001812351C123589D39F400122123561FFA7
:10425000900002120450D39F4001229002181235A0
:104260001CF9120437D39404400122D32290031680
:104270001207C8900316124A9AC3120754401390AB
:1042800002D3E07008124AC3740B124AB07EFF7F5B
:10429000FF227F007E807DFF7CFF900316124AA1E3
:1042A000C312075450139002D3E07008124AC3742B
:1042B0000C124AB07E807F0022900316A3124ABCE3
:1042C000229001FCE0F8A3E0F9A3E0FAA3E0FB22CE
:1042D000900018E0FCA3E0FDEC12037D7B897A8856
:1042E0007988783B020159E0FFFD9000F5E0FAA3E0
:1042F000E0FB229000F5E0FCA3E0FD221200681232
:1043000003B69001FCEFF022FE9001FEE09F9001C9
:10431000FDE09E221251E49000F1E0B5061FA3E0FB
:10432000B5071A12398DFBD312075450101239A950
:10433000A3E0FFEC3340069001860207C89002D349
:10434000E070197442F09000EDA3A3A3E09002CFB7
:10435000F0900186A3A3A3E09002D4F0900186120E
:1043600007D4FFFFFFFF2290021512353A90021585
:1043700012351C4A4B7002C32290021512351C12D2
:104380003567A312353A900215A3E0FAA3E0F912BB
:104390003561FF12358AFED39F4001229002181228
:1043A000351CF98E82758300ED1204E4900215121B
:1043B000351CF9740112359AD322900225EFF0C30F
:1043C0009409503B1226987030900226740FF0909A
:1043D0000226E0FF14F0EF6020E0FF12266FF58365
:1043E000E0B4A5EBEF12268EF583E0FF900225E006
:1043F000FEEFB506DAA3E0FF22900225E0FF22904F
:1044000002D3E0700574401227237FFF227417F057
:10441000E49002CFF09002D4F09002D522E0243F45
:10442000F582E43402F583229002637480F0E49014
:104430000266F0C21A22E0FBA3E475F001120583C4
:10444000A9F0FA22EBF0A3EAF0A3E9F0229003240A
:10445000E0FBA3E0FAA3E0F9227DFF0F024B9FC22D
:10446000DDC2AFAF1FE4F51FD2DDD2AF9002EEE0A8
:104470002FF09002EEE0C3940A4035E024F6F0906D
:1044800002EDE004F0C3940A40E8E4F09002EBE0AF
:1044900004F0940A40DCE4F0A3E004F0943C40D241
:1044A000E4F09002EFE004F0943C40C6E4F080C2F7
:1044B00022900218EFF0AF031235431250299002F8
:1044C0001C12353A90021C12351C4A4B6033900284
:1044D00018E0FE90021CA3A3E0F9900004EE120481
:1044E000E4900005ED1204E4900006EF1204E4905D
:1044F000021BE09000071204E41204374404120483
:10450000D222900200124B24EDC39409500B90026A
:1045100000E4F0A3F0A3F08032900200124B2D6073
:104520002A900200A3A3E0F9E41204D2ED24FCFFD8
:10453000900200124B14900001EF1204E49000026C
:10454000E41204E4900003E41204E4900200124B2D
:104550001422900238EEF0A3EFF0A3EBF0A3EAF000
:10456000A3E9F0A3E5A8F0A3E5D8F012529A9002CF
:1045700037E0FF14F0EF602812484812484FAFF0C0
:10458000FE90023AE0FB12484FA9F0FA124862127C
:10459000FFDD90023EE0F5D890023DE0F5A880CE28
:1045A0002290021812353A12502990021B12353A05
:1045B00090021812351C4A4B6032900218A3A3E0F7
:1045C000F974021204D290021812351C12355724C5
:1045D0000890000412355E90000212355EFF7E00E6
:1045E0007D0090021B12351CF91208322290023213
:1045F000ECF0A3EDF0A31248577402F074321248A5
:104600003E900234124850900236124832124862EC
:1046100012FFDD900234E0FEA3E0FFA312483590C4
:104620000001120450FD7B0112FFDD90023AE0F51B
:10463000D8900239E0F5A822900312124ACA9003DA
:1046400012124AA1C312075440139002D3E070081B
:10465000124AC37409124AB07EFF7FFF22900312F0
:10466000E0FCEC3350129002D3E07008124AC3749D
:104670000A124AB0E4FEFF22900312A3124ABC229F
:10468000900200124C8B900200124C824A4B602F19
:10469000EDD394044029900200A3A3E0F9E41204AE
:1046A000D2900200124C82F9900001E41204E4ED71
:1046B00024FC9000021204E4900003E41204E4904D
:1046C0000200124C82F922900214EFF012354312CC
:1046D000421940037F0122123543125029900215DE
:1046E00012353A90021512351C4A4B70037F012295
:1046F00090021512351CF9120437FE900214E05E88
:1047000060037F0222EE7F0030E0027F03229002EE
:1047100019EB12264CAF051243BAEFC3940F502980
:104720001252F590021DE090021F12271790021EF0
:104730001226B2C003C002900219122666F8AC021B
:10474000AD03D002D0030209BC9002D3E070031283
:1047500026F37F0122EF24FE601714601B14601FF4
:104760001460231460272405702A7B017A02797172
:10477000227B017A027973227B017A027982227B81
:10478000017A027980227B017A02796F227B017A99
:10479000027968227B007A007900229002001235AB
:1047A0003A90020512353A90020512351C4A4B60C8
:1047B0002790020012351C12356790020812353A14
:1047C000900204E0FFA312351C123590ED24FB90FB
:1047D00000031204E41245A190020512351CF922CF
:1047E000900207EB12264CAF051243BAEFC3940FA9
:1047F00050291252F590020BE090020D12271790EB
:10480000020C1226B2C003C002900207122666F8FC
:10481000AC02AD03D002D003020A9C9002D3E07038
:10482000031226F322900238E475F00112058390FA
:10483000023AAFF0FEE0FBA3E0FAA3E0F922A3F016
:10484000A3E5A8F0A3E5D8F053A87F53D8DF22A3AF
:10485000E475F001020583EEF0A3EFF0A37401F01C
:10486000A322120437FD7B01229003021207C87FA6
:10487000007EFE7DFF7C46900302124AA11202FFD9
:1048800040057E7F7FFF22E4FFFEFD7CC790030290
:10489000124AA11202FF600250057E807F00229022
:1048A0000302124AB71203B62290020D124C8B90EB
:1048B000020D124C824A4B7002C32290020D124C20
:1048C00082124C94124C9DD39F40012290020D12F3
:1048D0004C82F9120437D39F400122124C95124C9E
:1048E000A3D39F400122D322AE031247559001FA71
:1048F000124E459001FA124E3D4A4B60299001FA42
:10490000124E4EEEC39F501EEEF582758300A31229
:104910000450B50511AF06EF2401FFE433FE8F828A
:104920008E83E41204E4229002D6EB12264CA312EA
:1049300007D400000000122679123B8B900BA6E0F2
:104940006E7003A3E06F600A9002D91207D40000D2
:1049500011111226549002D6122666F91207AE9053
:1049600002D91226572290020C1207C87E0B7F80B4
:104970001250817E0B7FA2C006C00790020C122647
:10498000579002341207C8D007D00612406A7B0144
:104990007A02790C12267F123B8BAC06AD077E0B98
:1049A0007FA60245ED9002ABE5C1F0A3124DEC4AA3
:1049B0004B700B9002B2E0C394FF5026802190020E
:1049C000AC124DECF99002ABE0FD123CC49002AA8F
:1049D000EFF06401600C9002B2E0C394FF5003E07A
:1049E00004F02290021412353A90021412351C4A37
:1049F0004B7004FBFAF92290021412351C12356731
:104A0000A312353A900214A3E0FAA3E0123557241A
:104A100008FFE433FE90021712351C2FF9EA3EFA24
:104A2000221253585035209625900330E004F0941C
:104A30002840287428F09002D3E0700E7420F09083
:104A400002CF7406F0E49002D4F0C206800D900309
:104A500030E0600714F0E07002D206A20622900354
:104A6000061207C87F007EFF7D7F7C4790030612F9
:104A70004AA11202FF40057EFF7FFF22E4FFFEFDF8
:104A8000FC900306124AA11202FF5004E4FEFF222A
:104A9000900306124AB71203B622E47FFF7E7FFD21
:104AA000FCE0F8A3E0F9A3E0FAA3E0FB229002CF38
:104AB000F0E49002D4F022E0FCA3E0FDA3E0FEA32A
:104AC000E0FF227407F09002CF221207C8E47FFFB4
:104AD0007EFFFDFC22C0E0C0F0C083C082C085C064
:104AE00084C086C0D075860075D008125269200F28
:104AF0000C300E09743EC0E07400C0E032D0D0D05B
:104B000086D084D085D082D083D0F0D0E032120419
:104B1000D2900204E0FBA3E0FAA3E0F9222404F916
:104B2000E43AFAA3EBF0A3EAF0A3E9F022E0FBA356
:104B3000E0FAA3E04A4B229000020204509002B334
:104B4000E0FF74FF9F22C0E0C0F0C083C082C08538
:104B5000C084C086758600C0D075D0083098051214
:104B60002E0FC298309905122C8BC299D0D0D086C6
:104B7000D084D085D082D083D0F0D0E0329219E4B6
:104B8000A3F0EE54FEFD7B0CE4FF124B9FAF04AD8F
:104B9000077B2C7F01124B9FEE4401FD7B0C0F74B1
:104BA0003F2F124420EDF074512FF582E43402F5CA
:104BB00083EBF022AE07AC059002647405F0A220EE
:104BC000124B7D7B111244597E04AF067B017DFFA1
:104BD000124B9F0EEEB411F27B037DFF7F11124B3F
:104BE0009F124428024FEC900324124444AE051255
:104BF000444D12515D900242E0FFC39E5002AE0749
:104C00009002CB7401F0A37402F0A37443F0A3EEFE
:104C1000F012444D124E89AF06221247559001FA08
:104C2000124E45124E3A4A4B60229001FAA3A3E07D
:104C3000F9ED1204D27F01EFD39D5010124E3AF9D4
:104C40008F82758300E41204E40F80EB22C0E0C081
:104C5000F0C083C082C085C084C086758600C0D085
:104C600075D008E562600415628003123221D0D04D
:104C7000D086D084D085D082D083D0F0D0E032905E
:104C800002E4E0FBA3E0FAA3E022FAEBF0A3EAF0EF
:104C9000A3E9F022F9900002120450FF22900003D1
:104CA000020450900001020450F9740102049F7C38
:104CB00000ADDBAEDAAFD9227C00E5DBFDAEDAAFCA
:104CC000D930E7027CFF227C00E5DB6480FDAEDAB0
:104CD000AFD922ED30E7027CFF22ED6480FD22AEE9
:104CE00007AC059002647403F0A217124B7D7B01A0
:104CF0001244597B030F124B9F30190A90025574CE
:104D000001F00F124B9F124428024FEC1252F59003
:104D10000232122646E4FF900232122666F98F8292
:104D2000758300120450FD3395E0FCEDF44C6002F5
:104D3000C3220FEFB480E0D322900206124ACA9039
:104D40000206124AA1C312076A40139002D3E07010
:104D500008124AC3740D124AB07EFF7FFF229002F0
:104D600006A3124ABC2290031A1207C890031A1213
:104D70004A9AC312076A40139002D3E07008124A9D
:104D8000C3740E124AB07E7F7FFF2290031AA312D3
:104D90004ABC229002021207C8900202E0FCA3E083
:104DA000FDA3E0FEA3E0FF229002BEF09002BBE074
:104DB000FF2212077B9002021207C890020222E42F
:104DC0009002E2F09002DEF09002E0F09002E3F058
:104DD0009002EDE09002DFF09002EBE09002E1F053
:104DE0009002ECE09002DDF0229002AFE0FBA3E045
:104DF000FAA3E0229001FEE0F8A3E0F9A3E0FAA311
:104E0000E022EBF0A3EAF0A3E9F022F9900004021B
:104E10000450E49002A0F0A3F0900034E07002A3EC
:104E2000E0700C900032E07002A3E07002D3221216
:104E30002FE29002A87403F0C3229001FAE0FBA3D2
:104E4000E0FAA3E022EBF0A3EAF0A3E9F022A3A3A7
:104E5000E0F9120437FF22EDF582758300A3EE021C
:104E600004E4C0D075D008900265E0655CFF7E0860
:104E7000EF30E70725E06407FF8004EF25E0FFDE61
:104E8000EF900265EFF0D0D0229002C81244449017
:104E900002CEE0FF14F0EF60169002CB12443612FF
:104EA0000437FF9002C8124436EF1204D280E02289
:104EB0008B4B8A4C894D90020312351C8B4E8A4FC6
:104EC000F550C21DE4F551C21EF554F555F556F5E1
:104ED00057F558F55922E4F58075AD5575AC577501
:104EE00090FC75AF0F75AE7575A0F07455F5B2F501
:104EF000B175B0FF75B45775B30722AE03124755AD
:104F000090020C124E4590020C124E3D4A4B600E20
:104F100090020C124E4EEDC39F5003124E5722AE1C
:104F20000312475590032A124E4590032A124E3D14
:104F30004A4B600E90032A124E4EEDC39F5003124F
:104F40004E572253F1EFD2B3E4F5A175A30175A238
:104F50008F75A110F5A375A25075A10990003C743E
:104F600005F0E4A3F022900200124E027E007F04BE
:104F70007D007B017A0279B2120832900200124D54
:104F8000FA9002ACC9124E032290029DE0B4120BBB
:104F9000A3E0B41306122F77FF8007122F77FFBF0D
:104FA0001607C217124CDFD322C322E5C054F0FF0C
:104FB000BF701830DF15E58E30E410E58830E60B61
:104FC000E58954F0FFBF2003D38001C3229002641F
:104FD000E09001E7B40206E04440F08004E054BFF2
:104FE000F07B007A007900D216023AB2C2AF1250BA
:104FF0005AE4F55EE58954F04402F589438E08E4ED
:10500000F58CF58AD2A9D28CD2AF227F367A00797C
:105010008612301A7F0C7A0079DC12301AE4900282
:10502000A0F0122FF0122FF02290021F12353A90AA
:10503000021F12351C4A4B7004FBFAF92290021F22
:1050400012351C123567229208A29782099209A292
:105050009682079207A296720822756102755F0018
:105060007560FA22EF24FC24FC50046009800C9047
:10507000032DEFF0800812537A80037F00227F0116
:105080002290023212484112529A7B01E4FD12FF33
:10509000D7900233E0F5D8900232E0F5A822EF6D08
:1050A000FCEEFF75F002ECA424B0F582E5F0345379
:1050B000F583E493FE7401936FFF229002F0E0FE0B
:1050C000A3E0AA06F97B019002C374FFF0A322902B
:1050D00002F3E0FFA3E02290028EE0600414F0D31C
:1050E00022900285E0FF64056004EFB40703D380DB
:1050F00001C322E4900296F090028F7425F0A3740D
:1051000080F090028A740FF0A374A0F0C2A522D29E
:10511000DDD2AFE51F70049002EAF09002EAE0658C
:105120001F60F89002EAE51FF022EF6002D21390B0
:105130000294EAF0A3EBF090003AEFF0A3EDF070E8
:1051400002C2152269636F6E0069636F6600444591
:105150004300494E4300496E7400504200900321C1
:10516000124444AF051DEF600C900321124436E455
:105170001204D280EE229002321248417B0112FFCB
:10518000DD900233E0F5D8900232E0F5A8227B01F1
:105190007A0079ED9001FFE4F0A37406F07D007CC5
:1051A000040239C975FB0A75FD2B75FC3275FE6367
:1051B00075FA8053F1FD75A61022E49002EEF0908E
:1051C00002EDF09002EBF0A3F09002EFF0F51F2259
:1051D0009002D3E0700D7460F09002CFEFF0E49095
:1051E00002D4F0227B017A0079ED9002377404F04A
:1051F00074FFFFFE123B8B22EFC394094005EF942E
:105200000E4004EFB42003D38001C322C3900301F6
:10521000E09484900300E0940350028001C322755F
:10522000985075C83475CBFF75CAB8C298C299D268
:10523000AC2290032DE0B40502C322E5516002C305
:10524000228F51D32275DD01E4FE7FC81253950EE3
:10525000EEB4FAF6024CB8900243E0FE900242E04F
:105260007C002400FFEC3EFE2230C005C2C0124983
:10527000A530C105C2C112317922EF2402F519E42B
:10528000F51AC204C205759910228B578A5889599C
:105290008D5BE4F552AF058F532253F1FB75FF216F
:1052A00075FF0175FF8175FF012253F1FB75FF2723
:1052B00075FF0775FF8775FF0722C0E0E5A730E49B
:1052C00004E5FA051FC2DCD0E032EFC3943040079A
:1052D000EF943A50028001C322900264E0C3940329
:1052E0004003D38001C322C0D075D0088F5DAF0DBD
:1052F0008F5ED0D022EF75F080A42400FFE5F0345B
:1053000004FE229002BA740AF09002BDEFF02290DF
:10531000031E123978301102D21022C213C215E4D2
:1053200090003AF0A3F0229002CFF0E49002D4F083
:1053300022755E01755D8012505A22755E01E4F59A
:105340005D7561012253F1FB75FF8075FF072250E7
:10535000424D5F56335F3400900264E0C37001D366
:1053600022C2A9C28CD296D29722900232EEF0A32A
:10537000EFF0227405F09002CF2275F701E4F5F703
:1053800022123543125029228B548A558956229075
:10539000032EEFF02200DFFD2200DFFD2212354355
:1053A0002275EFA5220253A8C20322A21C222222A8
:1053B0000000C0C1C1810140C30103C00280C241DD
:1053C000C60106C00780C7410500C5C1C4810440AD
:1053D000CC010CC00D80CD410F00CFC1CE810E405D
:1053E0000A00CAC1CB810B40C90109C00880C8416D
:1053F000D80118C01980D9411B00DBC1DA811A40DD
:105400001E00DEC1DF811F40DD011DC01C80DC41AC
:105410001400D4C1D5811540D70117C01680D641DC
:10542000D20112C01380D3411100D1C1D0811040EC
:10543000F00130C03180F1413300F3C1F2813240DC
:105440003600F6C1F7813740F50135C03480F441AC
:105450003C00FCC1FD813D40FF013FC03E80FE415C
:10546000FA013AC03B80FB413900F9C1F88138406C
:105470002800E8C1E9812940EB012BC02A80EA41DC
:10548000EE012EC02F80EF412D00EDC1EC812C40AC
:10549000E40124C02580E5412700E7C1E6812640DC
:1054A0002200E2C1E3812340E10121C02080E041EC
:1054B000A00160C06180A1416300A3C1A2816240DC
:1054C0006600A6C1A7816740A50165C06480A441AC
:1054D0006C00ACC1AD816D40AF016FC06E80AE415C
:1054E000AA016AC06B80AB416900A9C1A88168406C
:1054F0007800B8C1B9817940BB017BC07A80BA41DC
:10550000BE017EC07F80BF417D00BDC1BC817C40AB
:10551000B40174C07580B5417700B7C1B6817640DB
:105520007200B2C1B3817340B10171C07080B041EB
:10553000500090C191815140930153C052809241DB
:10554000960156C057809741550095C194815440AB
:105550009C015CC05D809D415F009FC19E815E405B
:105560005A009AC19B815B40990159C0588098416B
:10557000880148C0498089414B008BC18A814A40DB
:105580004E008EC18F814F408D014DC04C808C41AB
:10559000440084C185814540870147C046808641DB
:1055A000820142C043808341410081C180814040EB
:1055B000C544C544C544C5442710271027102710EB
:1055C0002710C544C544C544C544C54417A24E2050
:1055D00017A20532271027102710C544F913000021
:02807E00FF9D64
:0273FE00B5894F
:00000001FF
