:1000000002217A1238A97410F022220236099002D5
:1000100021EFF0E4F51890021EEBF0A3EAF0A3E95B
:10002000F0E4F51A90021D04F0E4900222F0AF050E
:100030008F1922023D89E91220922202367E75D064
:1000400010100613D0D0D086D084D085D082D08333
:10005000D0F0D0E0C2082210070280E8123E78807B
:10006000F6123EF380F1020387E86480F8E933E892
:100070003360110460F0ED33EC337009E8FCE9FD06
:10008000EAFEEBFF220460DED3EB9FEA9EE99DE8E7
:10009000C2E78CF0C2F795F0400CE8CCF8E9CDF956
:1000A000EACEFAEBCFFB12035285D0F0580470036E
:1000B00020D5B3E80470075002B2D502039192D55F
:1000C000EC0460F7E4CCC0E0C398F8603B9418609F
:1000D00008400DD0E0FB020369E4FBFAC9FC80286C
:1000E000E830E406E4C9FBE4CAFCE830E305E4C90F
:1000F000CACBFCE854076010F8C3E913F9EA13FA15
:10010000EB13FBEC13FCD8F130F52FC3E49CFCEFB0
:100110009BFFEE9AFEED99FDD0E0FBEF4E4D4C704B
:100120001222DB0302038EEC2CFCEF33FFEE33FED6
:10013000ED33FDED30E7EB020369EF2BFFEE3AFE06
:10014000ED39FDD0E0FB50130BBB0003020391ED32
:1001500013FDEE13FEEF13FFEC13FC020369EC4DED
:100160006011E8497017ED33EC3304600DE4FCFFD7
:10017000FEFD22E933E8330470F8020387120352CC
:1001800058046009E4CC24815006285009020391E8
:1001900028400302038EC0E0EB4A7044B98006D0C9
:1001A000E0FB02037DEF4E701CBD8008EBFFEAFE12
:1001B000E9FD80EBE98DF0A4FEE5F0020247E9CD10
:1001C000F9EAFEEBFFEF89F0A4FCE5F0CE89F0A49C
:1001D0002EFFE435F0CD89F0A42DFEE435F08067E4
:1001E000EF4E7005BD80D780C3EF8BF0A4ACF0EE6E
:1001F0008BF0A42CFCE435F0F8EF8AF0A42CE5F0A9
:1002000038FCE433CB8DF0A42CFCE5F03BF8EE8A0F
:10021000F0A42CFCE5F038F8E433CF89F0A42CFCF2
:10022000E5F038CF3400CE89F0A42FFFE5F03EFE94
:10023000E433C98DF0A42EFEE5F039CD8AF0A42F69
:10024000FFE5F03EFEE43DFD33D0E0FB50070BBB85
:10025000000F020391EC2CFCEF33FFEE33FEED3385
:10026000FD02036974F8CC6480CCC86480C8F58250
:1002700004604FC3EB9FF5F0EA9E42F0E99D42F027
:10028000E89C45F0603C501DE5825FFFE582D3139A
:10029000CB5BCBF42B5582FB50280ABA002409B95A
:1002A000002008801DE5825BFBE582D313CF5FCF82
:1002B000F4C3132F5582FF50090EBE00050DBD007B
:1002C000010CC3EB9FF5F0EA9E42F0E99D42F0E895
:1002D0009C45F06007CC4820E701B3EC2275F02084
:1002E000800E75F010800575F0087D007E007F009F
:1002F0003392D530D5031206B8EC334010EF33FFFC
:10030000EE33FEED33FDEC33FCD5F0ED22E5F024C9
:100310007EA2D513CC92E7CDCEFF22EDD2E7CD332E
:10032000EC3392D524814006E4FFFEFDFC22FCE480
:10033000CFCECDCC24E0501174FF80EDC3CC13CCD4
:10034000CD13CDCE13CECF13CF0470F030D5DE0257
:1003500006B8E9D2E7C933E833F892D5EDD2E7CD54
:1003600033EC33FC5002B2D522EC30E7100FBF0063
:100370000C0EBE00080DBD00040BEB6014A2D5EB03
:1003800013FCED92E7FD2274FFFCFDFEFF22E480EA
:10039000F8A2D574FF13FC7D80E480EFBB010689D1
:1003A000828A83E0225002E722BBFE02E322898296
:1003B0008A83E49322BB010CE58229F582E5833A26
:1003C000F583E0225006E92582F8E622BBFE06E925
:1003D0002582F8E222E58229F582E5833AF583E475
:1003E0009322BB010989828A83F8E028F022500316
:1003F00027F722BBFE05F8E328F3228A838982F8D7
:10040000E4932822BB010FF8E58229F582E5833ABF
:10041000F583E028F0225009C58229F8E58226F606
:1004200022BBFE09C58229F8E22582F222F8EA25DC
:1004300083F583E9932822BB010689828A83F0220F
:100440005002F722BBFE01F322F8BB010DE5822921
:10045000F582E5833AF583E8F0225006E92582C863
:10046000F622BBFE05E92582C8F222BC000BBE00C5
:1004700029EF8DF084FFADF022E4CCF875F008EFA1
:100480002FFFEE33FEEC33FCEE9DEC984005FCEEC6
:100490009DFE0FD5F0E9E4CEFD22EDF8F5F0EE84F7
:1004A00020D21CFEADF075F008EF2FFFED33FD40BC
:1004B00007985006D5F0F222C398FD0FD5F0EA2236
:1004C000C5F0F8A3E028F0C5F0F8E58215827002C7
:1004D0001583E038F022A3F8E0C5F025F0F0E582BE
:1004E000158270021583E0C838F0E822BB010A8942
:1004F000828A83E0F5F0A3E022500687F009E7192D
:1005000022BBFE07E3F5F009E3192289828A83E41E
:1005100093F5F074019322BB0110E58229F582E581
:10052000833AF583E0F5F0A3E0225009E92582F84B
:1005300086F008E622BBFE0AE92582F8E2F5F0081B
:10054000E222E5832AF583E993F5F0A3E99322BB40
:10055000010A89828A83F0E5F0A3F0225006F709A8
:10056000A7F01922BBFE06F3E5F009F31922F8BB48
:100570000111E58229F582E5833AF583E8F0E5F09B
:10058000A3F0225009E92582C8F608A6F022BBFE96
:1005900009E92582C8F2E5F008F222E88FF0A4CC40
:1005A0008BF0A42CFCE98EF0A42CFC8AF0EDA42C9A
:1005B000FCEA8EF0A4CDA8F08BF0A42DCC3825F069
:1005C000FDE98FF0A42CCD35F0FCEB8EF0A4FEA954
:1005D000F0EB8FF0A4CFC5F02ECD39FEE43CFCEA61
:1005E000A42DCE35F0FDE43CFC2275F008758200A8
:1005F000EF2FFFEE33FECD33CDCC33CCC58233C5E8
:10060000829BED9AEC99E58298400CF582EE9BFE78
:10061000ED9AFDEC99FC0FD5F0D6E4CEFBE4CDFAD3
:10062000E4CCF9A88222B800C1B90059BA002DEC77
:100630008BF084CFCECDFCE5F0CBF97818EF2FFF0F
:10064000EE33FEED33FDEC33FCEB33FB10D70399B7
:100650004004EB99FB0FD8E5E4F9FA227818EF2F64
:10066000FFEE33FEED33FDEC33FCC933C910D70583
:100670009BE99A4007EC9BFCE99AF90FD8E0E4C9A2
:10068000FAE4CCFB2275F010EF2FFFEE33FEED33D2
:10069000FDCC33CCC833C810D7079BEC9AE89940FF
:1006A0000AED9BFDEC9AFCE899F80FD5F0DAE4CD61
:1006B000FBE4CCFAE4C8F922C3E49FFFE49EFEE425
:1006C0009DFDE49CFC22EB9FF5F0EA9E42F0E99D43
:1006D00042F0EC6480C864809845F022EB9FF5F00E
:1006E000EA9E42F0E99D42F0E89C45F022E8601065
:1006F000ECA2E713FCED13FDEE13FEEF13FFD8F0B1
:1007000022E8600FEFC333FFEE33FEED33FDEC3331
:10071000FCD8F122BB010789828A83020A8950052D
:10072000E9F802074EBBFE05E9F8020A9589828ABC
:1007300083020AA1BB010789828A830207765005DA
:10074000E9F802076ABBFE05E9F8020AB122E6FCF5
:1007500008E6FD08E6FE08E6FF22E493F87401933C
:10076000F9740293FA740393FB22ECF608EDF60891
:10077000EEF608EFF622ECF0A3EDF0A3EEF0A3EF17
:10078000F022D083D082E493F608740193F60874C3
:100790000293F608740393F6740473A8828583F0B9
:1007A000D083D0821207B21207B21207B21207B278
:1007B000E473E493A3C583C5F0C583C8C582C8F0BC
:1007C000A3C583C5F0C583C8C582C822D083D082A3
:1007D000F8E4937012740193700DA3A393F874015D
:1007E00093F5828883E473740293B5F006740393DF
:1007F0006860E9A3A3A3A380D8EF4E6012EF600165
:100800000EEDBB010B89828A83F0A3DFFCDEFA22A6
:1008100089F05007F709DFFCA9F022BBFEFCF309C1
:10082000DFFCA9F022E3F5F009E208B5F06BDFF593
:100830008067E3F5F009E608B5F05EDFF5805A87DA
:10084000F009E608B5F052DFF6804E87F009E208BD
:10085000B5F046DFF6804288828C8387F009E0A3FA
:10086000B5F036DFF6803288828C8387F009E49316
:10087000A3B5F025DFF5802188828C83E3F5F009AC
:10088000E0A3B5F014DFF5801088828C83E3F5F0E7
:1008900009E493A3B5F002DFF4020940808780E900
:1008A000809080D48034801580648074809D80B76F
:1008B000808D80A38047806A803202094C88848CB6
:1008C0008589828A83E493F5F0A30586E493A305E2
:1008D00086B5F06CDFEFDEED806689828A83E49373
:1008E000F5F0A3E208B5F058DFF4805489828A83DA
:1008F000E0F5F0A3E608B5F047DFF5804389828A8A
:1009000083E0F5F0A3E208B5F036DFF580328982A6
:100910008A83E493F5F0A3E608B5F024DFF48020A1
:100920008002804388848C8589828A83E493F5F0F1
:10093000A30586E0A30586B5F006DFF0DEEE8000B5
:100940007FFFB5F0020F2240027F012288848C8550
:1009500089828A83E0F5F0A30586E0A30586B5F0D9
:10096000DFDFF1DEEF80D988848C8589828A83E09D
:10097000F5F0A30586E493A30586B5F0C3DFF0DEAA
:10098000EE80BD88F0EF60010E4E60BFED2402B432
:10099000040050ACF582EB2402B4040050A22323DF
:1009A00045822390089C73E709F608DFFA8046E742
:1009B00009F208DFFA803E88828C83E709F0A3DF22
:1009C000FA8032E309F608DFFA806EE309F208DF05
:1009D000FA806688828C83E309F0A3DFFA805A8963
:1009E000828A83E0A3F608DFFA804E89828A83E058
:1009F000A3F208DFFA804280D280FA80C680D480D9
:100A00005580F28029801080A680EA809A80A88094
:100A1000DA80E280CA802988848C8589828A83E48E
:100A200093A30586F0A30586DFF5DEF3800B8982AC
:100A30008A83E493A3F608DFF9ECFAA9F0EDFB2230
:100A400088848C8589828A83E0A30586F0A3058645
:100A5000DFF6DEF480E389828A83E493A3F208DF81
:100A6000F980D688F0EF60010E4E60CD88F0ED245D
:100A700002B4040050C3F582EB2402B4040050B960
:100A800023234582239009F773E0FCA3E0FDA3E054
:100A9000FEA3E0FF22E2FC08E2FD08E2FE08E2FF1E
:100AA00022E493FC740193FD740293FE740393FF9C
:100AB00022ECF208EDF208EEF208EFF222122485A1
:100AC000900142122490E4A3F0120D60EF6458707C
:100AD00003EE64066005E49000D2F0EF8EF012079A
:100AE000CC0BB100010B0D00050BA700090B9C00FE
:100AF0000B0B2000190B4B064C0C1406520B8506F1
:100B0000560CF306580D04065A00000D507B02E403
:100B1000FD7F01123AC37B067F03123AC3020CF138
:100B200012246A12249F94045003020D0E90014671
:100B3000122488F9120714122A5E90012F120776E8
:100B40001224A912345CD202020CF112246A12247B
:100B50009F94045003020D0E900146122488F9124E
:100B600004ECFFAEF0122A5A900133EEF0A3EFF03E
:100B70009001461224881224C8122A5A900135EE98
:100B8000F0A3EF801C90012AE0B401047B098002ED
:100B90007B0A7D047F03123AC3020CF19001377483
:100BA00001F0D202020D4CE4900137F0D202FEFFB8
:100BB000229000D9E0D394014003020C829000DC23
:100BC000E07002A3E06003020C829000D5E07002A6
:100BD000A3E06003020C8212246A12249F94055041
:100BE00003020D0E900146122488900001120D554B
:100BF000900105EEF0A3EFF09001461224889000DA
:100C000003120D559000DCEEF0A3EFF0E49000AF7E
:100C1000F0FEFF229000D9E0FFD394015014900021
:100C2000DCE07002A3E0700A9000D5E07002A3E05F
:100C30006055EFD3940140169001F6E07044122401
:100C4000DC7401F09000D9E09001F7F0803490005E
:100C5000DCE0FEA3E0FF4E600D9001F6E070231291
:100C600024DC740280169000D5E0FEA3E0FF4E6005
:100C7000119001F6E0700B1224DC7403F09001F780
:100C8000EFF07E007F042212246A12249F941450F5
:100C900002807B9001461224881224C8122A5A909E
:100CA0000149EEF0A3EFF0C39420EE940050409081
:100CB0000146122488F9120D609000E0EEF0A3EFD7
:100CC000F0900149E0FFA3E09000D5CFF0A3EFF052
:100CD0009000D5E0FEA3E0FF900146122488240492
:100CE000F9E43AFA78E37C007D01120A638002801D
:100CF0001D80599000D2E06003B401069000D2E05C
:100D000004F0804812246A12249F940450057E0047
:100D10007F0222900146122488F9120714122A5EDB
:100D2000900145EFF0BF0104D2008020900145E022
:100D3000FFB40204C2008014EFB4030B7DC27FFD38
:100D40007E70122CE880057E007F0622E4FEFF22E2
:100D50007E007F6722F9120517FFAEF0122A5A2291
:100D60001204ECFFAEF0122A5A22123EAEEF7003CC
:100D7000020F459000D9E0B40A004003020F4090F2
:100D80000D86F8282873020DA4020E0A020E100226
:100D90000E26020F45020E56020EA6020EC3020ECA
:100DA000E0020F2F9000DCE0FEA3E0FFD39400EE02
:100DB000940040211238B6900105E0FDA3E09000B8
:100DC000DECDF0A3EDF0900108EEF0A3EFF090017E
:100DD0000F7402806ED39000D6E094009000D5E0AE
:100DE00094004010E49000D7F01238B690010F74D0
:100DF00002020EB8900107E0600314F0221238B628
:100E0000123E5F9000D97401F022123D18020F3B90
:100E1000123D18EF60077F01123BDC806B90010FE1
:100E2000E0602B14801D123D18EF6010120F467405
:100E300002F09000D97404F07B03806390010FE00E
:100E4000600C14F0123B2F9000D97402F022E4FFE2
:100E5000123BDC023EA59000D8E0FF7E009000DF50
:100E6000E02FF09000DEE03EF0C3900109E09FFF2C
:100E7000900108E09EFEF0A3EFF0D39400EE940002
:100E8000401090010F7402F01234DA9000D974030C
:100E9000F022E49000DCF0A3F09000D9F07B047D18
:100EA000027F03023AC3123D18EF6005120F46801D
:100EB0004390010FE0602714F0123DD89000D974E0
:100EC00006F022123D18EF600C7F01123BDC90010E
:100ED0000F740C804790010FE06003148018804766
:100EE000123D18EF602F7F01123BDC1233DDEF90D3
:100EF000010F600D7402F0122EE49000D97407F017
:100F0000227402F0E49000D5F0A3F0123E039000AA
:100F1000D97409F02290010FE0600C14F0123E5FCA
:100F20009000D97408F022E4FF123BDC023C1B1253
:100F30003D18EF60047F018002E4FF123BDC80007B
:100F4000E49000D9F0227F01123BDC90010F229047
:100F5000014212365FA312365190014512364A12F1
:100F6000039C24FE24FD5002801E123645E4120428
:100F700037123645900006E4120449E4F5F01236C3
:100F800078900007E4120449900142123648123A60
:100F900076EF700F90015FF0FB7D027FF51237E274
:100FA0000211247C01EC64016003021067C2DDC2FF
:100FB000AF90014F04F0A37401F0A3744BF09001C3
:100FC00042123648122927AC07D2DDD2AFEC6401B9
:100FD000600302112412364512039C14602B047026
:100FE0007990014BE0B455047401804C74011204F3
:100FF0003790014BE0FDB4AA028046123645122D0F
:1010000040EF640370547F032212364590000712AC
:1010100003B5601790014BE0FD122D40BF03037F25
:101020000322123645900007E4801E90014BE0FD3C
:10103000B4550A1236457402120437801DEDB4AA65
:101040000D1236459000077401120449800C1236C7
:1010500045122D40BF03037F032212364512039C25
:1010600064026003020FA5123645123668FEC3946F
:1010700005502012366E7012741112364412366802
:101080009001F1F09001F77405F09001A0E004F0F8
:10109000021124EE24FE90015EF0900148123648C1
:1010A000E4FFFE1228BD123645EE8FF0123678129C
:1010B000366824FEFFE434FFFE9001481236488F64
:1010C000828E83120517FFAEF0122A5A123645900F
:1010D0000003EE8FF012056E900001120517FFAEAF
:1010E000F09000031205176F7003E5F06E602F1289
:1010F000364512366E702274131236449000031275
:101100000517FBAAF0EA9001F1F07C007DFFAF0328
:10111000FE12046B9001F7EFF09001A080039001A4
:10112000A3E004F012364512039CFF229001C3EFA6
:10113000F09001C512079BFFFFFFFF1217626003CB
:101140000211DC9001C3E0A3F01217CC5038EF126B
:101150001739F583E0B4FF15121754F583E0B4FF97
:101160000C123842EF60069001C4E0FF229001C3E8
:10117000E0FFA3E0FEB507047F098003EE04FF90C3
:1011800001C4EFF080C39001C47409F01217CC5071
:1011900056EF121739F583E064A5703B121754F52A
:1011A00083E0FF9001C9F0123DE7A31217109001F0
:1011B000C4E0FF123DE7AA06A9079001CD1217145B
:1011C0001217D5123C3A1217D5A3121730F9900115
:1011D000BB7480F0122F3412180280B09001F6E038
:1011E000700574411217ED7E0B7F80C006C007901A
:1011F000015112079B00000000D007D006122C906E
:101200001217431228BD900BA6E0B5060EA3E0B559
:10121000070912171E9001C51207767E0B7F8012F8
:101220003C3A7E0B7FA2C006C0079001C512172171
:10123000900151120776D007D006122C907A0179CE
:10124000C51217471228BDAC06AD077E0B7FA6124C
:101250002FD1E49001C4F09001C4E0FFC394095081
:1012600027123842EF701C9001C4E0FD121758AFEE
:1012700082FE123CA79001C4121738AF82FE7DA5F2
:10128000123CA712180280CF9001C47409F0121703
:10129000CC5016123842EF700B9001C4E0FF123DA3
:1012A000E7123C3A12180280E57E0B7F80C006C030
:1012B0000790015112079BAFFE5542D007D006128E
:1012C0002C909001C3E0FF123842EF60069001C3FA
:1012D000E0FF227F09123842EF70087F09123DE7D4
:1012E000123C3A7F092290014FEFF0A20D90015677
:1012F00012203A12003690015012204BE5634562ED
:1013000045616017AB61AA62A96312039CFF90015B
:101310005012202C900001EF120449900156122027
:101320008B90015312204B9001F6E0706990019F61
:10133000E0FDD394C8500EA3E094C850089001A3D8
:10134000E094C8401F9001A0E0FB9001A3E0900151
:101350005FF07FF01237E2E490019FF0A3F090017C
:10136000A3F08051D39001A2E094989001A1E09461
:101370003A4042E0FAA3E07C007DFFFFAE02120497
:101380006BEAFBE490015FF07FF21237E2E4900138
:10139000A1F0A3F0801F9001F6E0FF9001F1E0FDC5
:1013A0009001F7E0FB9001F8E090015FF01237E266
:1013B000E49001F6F0AF57055790015012202C90A1
:1013C0000003EF120449E564600E90000212044924
:1013D00012039C4408120437300C0E900150122066
:1013E0002C12039C4410120437C20CE4F5649001E3
:1013F0005012202C1220AA7041900260E0FEA3122D
:1014000020D4EE90000512044990015612202C9031
:1014100000021203B5FF90015012202C900006EF3D
:1014200012044990015612202C1220AAFF9001505C
:1014300012202C900007EF12044990015612202C24
:101440001220AA90015EF090015312202CE4FFFEBE
:101450001228BD900260EEF0A3EFF090015612202A
:101460002CEFFD12331990015612202C900260E0EF
:10147000FD12331990015612202C900002E4120440
:1014800049740312043790014FE060031230F59065
:10149000015612202C12039CFF22900114121A9361
:1014A00090013D1207769001417410F0E0FF900129
:1014B0002AE07E0060027E80121AB590012BE07E49
:1014C0000060027E40121AB5C007121AAB121A7FD2
:1014D000FBC31206C67E0050027E01D0E0121AB68F
:1014E000C007121AAB121A7FFBD31206C67E004049
:1014F000027E02D0E0121AB690010AE0FEC3940206
:101500007D0050027D04EF4D121AB7EED394057E94
:101510000040027E08EF4E900141F090012CF090C7
:10152000012AE0607B121AAB121A7FFBC31206C6B7
:10153000502690010AE0C39402501D900166E01409
:10154000F060030215EB7403F0E490012AF0121B23
:101550000C9000B07402F0229001667403F09001C8
:101560002BE06016122852EF700E900167E014F025
:10157000707990012BF08021801F122347BF011941
:10158000900167E014F070637414F090012B740103
:10159000F09000B0E04404F0229001677407F0225C
:1015A00090012BE060147B0C7D067F03123AC3E4AC
:1015B00090012BF09001677407F0121AAB121A7F9A
:1015C000FBD31206C6500890010AE094054016901D
:1015D0000166E014F070147403F090012A7401F0B5
:1015E0009000B0F0229001667403F022E55A45594C
:1015F000455870037F012212205590015612204B4E
:1016000012003690015012204B7F02123956EF60C3
:10161000037F0022122055123A4E90015312204BA4
:10162000A312202C12207EC39F24FAFF90014FF0BA
:10163000122029E5668567F012054FC3EF9569E42E
:1016400095684026AE68AF691220C7C003C002C0CB
:1016500001122069D001D002D003120A631220299E
:10166000900002E5688569F0802A90014FE0FF7ED6
:10167000001220C7C003C002C001122069D001D0EF
:1016800002D003120A6390014FE0FF12202990005C
:1016900002E48FF012056E12202990000212051745
:1016A0002404FF90015612202C1220BA1220291275
:1016B00020B02567F567EE3566F566AD657C00C33D
:1016C000E5679DE5669C400BE4F566F567F5688D7A
:1016D00069800BC3E5699FF569E5689EF5681204AA
:1016E000ECFFAEF0122A5A122029EE8FF012054FAD
:1016F0001220291220B0122A5A1220291220999061
:10170000015012202C12039C44021204377F012244
:10171000AA06A9077401F0A3EAF0A3E9F022900B4E
:10172000A2E0FCA3E0A3FDE0FEA3E0FF229001D72E
:10173000E0FBA3E0FAA3E022E025E02484F582E4C4
:10174000340B227A0B79A27B0190015E7404F07451
:10175000FFFFFE229001C4E025E02485F582E434F9
:101760000B227F427E557DFE7CAF900B80E0F8A37C
:10177000E0F9A3E0FAA3E0FBC30206DCE0C39DFFAF
:10178000E49CFEA3E0FCA3E0AA04F97B0122900103
:10179000E6E02FF09001E5E03EF09001E8E02FF068
:1017A0009001E7E03EF022F0EB547FFFA3F0C3741A
:1017B000809FFFE49400FEC3ED9FEC9E227440F0F6
:1017C0009001F17401F0E49001F7F0229001C4E07F
:1017D000FFC3940F229001CAA3E0FAA3E0AE02FF78
:1017E00022FD7C002FFFEC3EF0A3EFF022F0E4900E
:1017F00001F1F09001F7F022FFFD7C00EC8DF0028A
:1018000004C09001C4E004F022E0FAA3E0FBAE02C1
:10181000780722F9A3E0FDA3E022E5A630E5031254
:1018200037B2051DE51DC394485003021901E4F5C4
:101830001D051EE51E94045003021901E4F51E90D7
:101840000259E07017123DC9D207D20690025AE041
:1018500030E0097B0DE4FD7F02123AC390025AE0AA
:10186000B406097B0E7D017F02123AC390025AE052
:1018700004F0E0FF30E00C900138E025E025E025A1
:101880001CF51CEF24FE602324FE601D24FE60294D
:1018900024FE6015240724F75002805B900137E096
:1018A000600F121916E41F803D8006900137E0603A
:1018B000089002597401F08048121916900258E0FD
:1018C000FF04F0EF1460111460121460131460141C
:1018D000240470177F01800E7F02800A7F03800638
:1018E0007F0180027F0412378280167F05123782C3
:1018F000E4900258F0800AE490025AF090025904F1
:10190000F0900259E0600EE51DC394447F00400250
:101910007F01121B1D22E4900259F07F01123D54F9
:1019200022900110121A93121AC190013D121A93BB
:10193000C004C005C006C007900118121A931232E5
:10194000D7A804A905AA06AB07D007D006D005D0B2
:1019500004121ABE90013D121A7FFB900135E0FE81
:10196000A3E0FFEE3395E0FDFCEB121A9F121AC1C3
:1019700090013D121A93E47BE87A03F9F812059B73
:10198000121AC1900133E07002A3E0701B121B0C0D
:101990009001F6E06003021A237470F09001F17474
:1019A00001F0E49001F7F02290013D121A93C00675
:1019B000C007900133E0FEA3E0FBAA06EA3395E0FE
:1019C000F9F8D007D006121ABEE47FFF7E7FFDFC37
:1019D00090013D121A7FFBC31206C6400C900128ED
:1019E000747FF0A374FFF080317F007E807DFF7CE8
:1019F000FF90013D121A7FFBD31206C6500B9001D7
:101A0000287480F0A3E4F0801190013DA3A3E0FFCF
:101A1000A3E0900128CFF0A3EFF090012AE070033B
:101A2000121B0C22120776900141E0FCA3E0FDA3FB
:101A3000E0FEA3E0FF900162E0F8A3E0F9A3E0FA82
:101A4000A3E0FBEF2BFFEE3AFEED39FDEC38FC9006
:101A50000141120776900162E0FCA3E0FDA3E0FEE5
:101A6000A3E0FF780112070190016212077690014E
:101A700041E0FCA3E0FDA3E0FEA3E0900162FFE0F3
:101A8000F8A3E0F9A3E0FAA3E0229001411207765F
:101A9000900141E0FCA3E0FDA3E0FEA3E0FF222FC4
:101AA000FFEA3EFEE93DFDE83CFC22E47F64FEFDEA
:101AB000FC90013D22EF4E900141F0E0FF221232F6
:101AC0000D90013D020776E4FDFCE0F8A3A3A3E03E
:101AD0000206C6E47FE27E04FDFC22FBEF2BFFEE54
:101AE0003AFEED39FDEC38FC227FC47E09E4FDFCB2
:101AF000900118227F407E977D877CFB9001102209
:101B00007FC07E687D787C0490011022900128F0CF
:101B1000A3F022E47F64FEFDFC90011422E57460D2
:101B200003021BD1EF601FE56B6004156B8007D2C9
:101B3000967F01123D54900262E0C3946440030218
:101B40001C147464F022E56A706FE5716011E5722F
:101B50007F0130E0027F008F6CE4F571756E01E566
:101B60006E6005D207D20622E56D6012E4FF123DD9
:101B700054756F80E4F573756A01F56D803BE5750A
:101B8000700E85766F857673756A08757501802984
:101B9000857276E56C7F8060027F008F6FE56C7FD9
:101BA000C060027F408F73E5707F0160027F028F0B
:101BB0006AE4F570F575757101E4FF123D54E56F47
:101BC0005480C36001D39296E56F25E0F56F0574EC
:101BD00022E574B401050574C29722E574640270AD
:101BE000130574E5735480C36001D39296E57325A1
:101BF000E0F57322E57225E0F5727F003095027FF3
:101C000001EF60020572D2977F01123DF5156AE47B
:101C1000F574F56B2290014212204BA3ECF0A3ED7A
:101C200012205490014E12204B120036900148129F
:101C3000204B7F02123956EF60037F00221220559D
:101C4000123A4E90014B12204BA312202C12207EF0
:101C5000C39F24FAFF900147E0FEEFC39E50037F2D
:101C60000022900145E0F9A3E0FF90014B1220A271
:101C7000C98FF012054F900147E0FFFD90014B1214
:101C8000202CE48DF012209CEF6018900147E0FFBB
:101C90007E0090014B12206C90014212202C120AFF
:101CA00063801090014B12202C900002E475F0FF2D
:101CB00012056E900147E02404FF90014E12202C83
:101CC0001220BA90014B12202C1204ECFFAEF0123D
:101CD0002A5A90014B12202CEE8FF012054F9001E2
:101CE0004B12202C1220B0122A5A90014B12202C99
:101CF00012209990014812202C12039C44221204B5
:101D0000377F01229001DDEB121716A3EDF0FF12D1
:101D1000112C9001E3EFF09001E0E0FF122E3F90D4
:101D200001E4EFF09001E3E0FF123DE79001E5EE02
:101D3000F0A3EFF09001E4E0FF123DE79001E7EE41
:101D4000F0FCA3EFF09001E5121726AA04A9057B89
:101D5000019001E1E09001BBF0122F349001E1E02D
:101D6000FF7E0012178E9001DD121730F99001E10D
:101D7000E0FDA3E0C39D9001BBF09001E5E0FEA370
:101D8000E0FF122F349001E1E0FFA3E0C39FFFE4E6
:101D90009400FE12178E9001E5E0FEA3E0FF1217FB
:101DA000839001E2E0FDC374809D9001BBF0122F8F
:101DB000349001E3121757AF82FE9001E0E0FD126C
:101DC0003CA79001E3121738AF82FE7DA5123CA715
:101DD0009001E4121738AF82FEE4FD023CA79001A7
:101DE00093E0FBF47003021EA59001F912079B001B
:101DF000000000EB24FC60071460042403700C90C6
:101E000001F912079B451C4000800A9001F9120756
:101E10009B00000000900193E0B4020A9001F912C7
:101E2000079B451C4000AF3EAE3DAD3CAC3BEC12C9
:101E300002DD900193E025E025E024F4F582E4340E
:101E400040F58312075A12015E9001F912326B12AB
:101E5000006D122B7A9001FD120776123251FB258C
:101E6000E025E02410F582E43401F58312077612B0
:101E7000327E123264D31206C6400A123251123236
:101E80007FF812076A900193E0123286123264C31F
:101E90001206C6500A123251123286F812076A90A0
:101EA000019374FFF0229000091224C0900145C9EB
:101EB000122497900040122488F9120F4F90013B92
:101EC000EFF0605214604F14601824FE703B123E15
:101ED000DF122485F99000061203B51224B97D049F
:101EE000802F12248590013F12249090000212034B
:101EF000B5FF123EDA120ABD90013EEFF0601712F4
:101F00003EDF1224B87D05800890013B1224B87D85
:101F1000077FF51237E27B017A01793D7F03122BAF
:101F2000D890013CEFF06045E024FD602714602765
:101F300014602724FE603624FE603214602F24FBD8
:101F4000601B2409701A122C3590000D7401F0905A
:101F5000003BF022023B52023C8D022F83023E8462
:101F600090013C1224B87D097FF51237E22212332A
:101F70005BEA494B701B9001A4E030E2119001A78D
:101F8000E0FFE4C39F500775C155E014F022C20E74
:101F9000227800E2FB08E2FA08E22405F9E43AFAC2
:101FA00090025B12338E300F1912335B123397FF9E
:101FB000123374F98F827583001203B5F5C1C20F15
:101FC000805B12335B9000021203B5FF123397FE61
:101FD000C39F402C12335B7401120437780014F253
:101FE00008F208F29001A2E004F070069001A1E06E
:101FF00004F09001A4E030E103C20E2275C1552225
:10200000123374F98E827583001203B5FF64556034
:1020100004EFB4AA0675C1AAD20F228FC112335B96
:10202000900004740112040422900153E0FBA3E029
:10203000FAA3E0F922A20D900159E43375F003A44C
:10204000245BF8860308E6FA08E6F9EBF0A3EAF069
:10205000A3E9F022F0A20DE43375F003A4245BF8A9
:10206000860308E6FA08E6F922900153E0FBA3E0B4
:10207000FAA3E02404F9E43AA801FCAD032290009D
:10208000041203B5FF9000030203B5E0FBA3E0FADE
:10209000A3E02405F9E43AFA22EE8FF09000020260
:1020A000056EE0FBA3E0FAA3E0229000040203B572
:1020B000900002120517FFAEF022EF900004020418
:1020C000049000010203B5AB58E55A2567F9E559BC
:1020D0003566FA22E09000040204497A007943123E
:1020E000216C90013B1224967A00797912216C9030
:1020F000013E12249690013E1224C0900144C91260
:10210000249790013B122488F9123A9DE49000B084
:10211000F07B017A0079B0123EC77A0079187D23EE
:10212000123C72900040122496123B757B017A009B
:1021300079B17D211235199000091224967F047A15
:102140000079051224D3E4900007F0A3F09000D2A8
:10215000F0A3F0A3F090003C12079B0000000012D7
:102160002C3512299190003B7401F0227B019001E3
:10217000457402F07D3612301C22787FE4F6D8FDDB
:102180009000007F007E04E4F0A3DFFCDEFA757BA4
:102190000075817B0221D20226F9E493A3F8E4932F
:1021A000A34003F68001F208DFF48029E493A3F84A
:1021B0005407240CC8C333C4540F4420C8834004BC
:1021C000F456800146F6DFE4800B0102040810207B
:1021D0004080902602E47E019360BCA3FF543F3010
:1021E000E509541FFEE493A360010ECF54C025E01F
:1021F00060A840B8E493A3FAE493A3F8E493A3C8D7
:10220000C582C8CAC583CAF0A3C8C582C8CAC58367
:10221000CADFE9DEE780BE90014512204B7F021243
:102220003956EF60037F002212205590014E122094
:102230004B90014E12202C12003690014812204B78
:1022400090014E12202C12207EC39F24FAFD1220F2
:1022500055123A4E90014B12204BAF05EFC3940C30
:1022600050037F002290014B12202CE4F5F0120560
:102270004F90014B12206C90014512202C7E007F64
:102280000C120A637F0C7E00122A5A90014B122016
:102290002C12209990014E12202C900004741012E0
:1022A000040490014812202C12039C44421204376B
:1022B0007F01229001D0EEF0A3EFF09001D7EB1256
:1022C00017169001D5E0FCA3E0FD4C60799001D099
:1022D000121809CEC313CE13D8F99001DA1217A73A
:1022E000500C9001D5E0FCA3E0AE04FF800090010B
:1022F000DCEFF012172D1218139001EDF02FA3F060
:1023000012313DEF601912172D121813FF9001E1E1
:10231000F09001DCE0FEEF2E9001E2F0121D04903F
:1023200001DCE09001D81217F89001D1E02DF09077
:1023300001D0E03CF0C39001D6E09FF09001D5E0E1
:102340009400F00222C222121B13121A7FFBC31246
:1023500006C650037F0122E47F887E13FDFC9001B6
:1023600014121A7FFBD31206C640037F0122121AF1
:10237000F4121A7FFBC31206C650037F0122121B00
:1023800000121A7FFBD31206C640037F0122121AE5
:10239000D3900120121A7FFBC31206C650037F019F
:1023A00022121AD3900124121A7FFBC31206C650C0
:1023B000037F0122121AE9121A7FFBC31206C650CC
:1023C000037F01227FA07E0F121AED121A7FFBD32A
:1023D0001206C67F0040027F012290013B12077661
:1023E00075C070D2DF438E10E588543F4440F588B5
:1023F000E589540F4420F5897F407E787D7D7C01FE
:1024000090013B123369FBC31206DC7019FF7E4B4F
:10241000FDFC123366FBC31206DC7005758DEC8083
:1024200026758DD98021123366FB12337F12062662
:10243000E47B10FAF9F8120626E47B04FAF9F812A4
:102440000626EFF404F58DC2C0C2C1D2AED2AF12DF
:10245000337F90019B12077690013FA3A3E0FFA377
:10246000E09001A5CFF0A3EFF022900142E0FBA3A2
:10247000E0FAA3E02403F9E43AFA900146EBF0A372
:10248000EAF0A3E9F0900009E0FBA3E0FAA3E02260
:102490002408F9E43AFAEBF0A3EAF0A3E9F022F910
:1024A0009000061203B514C32290012FE0FCA3E0B4
:1024B000FDA3E0FEA3E0FF22E0FBE490015FF02239
:1024C000E0F9A3E0FAA3E022F9900002120517FF59
:1024D000AEF0227E007D007B010207F97438F09097
:1024E00001F122C3E57894FEE57794732290015FB1
:1024F000F0FB7D0A7FF522E4900215F090021AE0CD
:10250000FF900212E06F6008EFF09002117401F08A
:10251000900218E0FF900214E06F6008EFF0900264
:10252000137405F0900219E0FF900210E06F60084C
:10253000EFF09002167407F0900211E0601004F0C2
:10254000E0FFC394045002802AE4900211F090024C
:1025500013E0601004F0E0FFC3940650028014E41E
:10256000900213F0900216E0601404F0E0FFC394B0
:10257000095006900215EFF022E4900216F022E5D1
:10258000197002FF22E51AD394004015E51A24FFC2
:10259000FFE434FFFE123E6C8F828E83E5761204D8
:1025A00049E51AC395194008851918E4F519FF2261
:1025B00090021DE06012900221E0F576756D01E455
:1025C00090021DF0F56C802CE51A7006900222E551
:1025D0006CF0900221E030E0087576FF756C0180A8
:1025E00011123E6C851A827583001203B5F576E4EC
:1025F000F56C051AE51AB51906757001E4F56C7FDE
:1026000001224102170041018000410193FF440172
:1026100074000000004401780000000044017C00C8
:102620000000004401620000000041016603410116
:102630006707011B64011C004100D200C100C104F6
:10264000C101C103420003000002770000015700EE
:10265000065B000000000000C10D035800000001EF
:102660006500420260000044019B0000000042013E
:10267000A5000083000000004301980000000090C6
:10268000013EECF0A3EDF0900142EB121716900121
:1026900040E0FCA3E0FD4C605F90013E121809CEC3
:1026A000C313CE13D8F99001451217A7500C90010F
:1026B00040E0FCA3E0AE04FF8000900147EFF09003
:1026C000014212173012181390014CF02FA3F01290
:1026D0003184900147E09001431217F890013FE0E8
:1026E0002DF090013EE03CF0C3900141E09FF0905E
:1026F0000140E09400F080962212372090013F12B2
:10270000079B00004B007F407E787D7D7C0112237B
:10271000DA1220DB123EE4123294123BBA123E9BD4
:10272000123720123CD7123EF2123CBF123C571215
:102730003D0312000A120003D2DDD2AF120D6A125D
:102740001EA6123592123B98123DB91224F7123D83
:1027500066EF6003123D999000D2E0B4020D123E84
:10276000CEEF70077FA87E611274001227E4122E4C
:102770009280C59002291239BA900229E0FBA3E0A9
:10278000FAA3E02404F9E43AFA1239B990022912C2
:1027900039B21239C3FF1239D0C39F40037F0222DE
:1027A0009002291239B012039CFE90022C1239B00B
:1027B0008E82758300ED1204499002291239B0907F
:1027C0000003740112040474011203E2900229123E
:1027D00039B01239C3FF12039CC39F4004E41204B2
:1027E000377F0122E490013BF090013BE0FF04F0D1
:1027F000EFC3940350301224E3502B900003E0FE0B
:10280000A3E0FF0578E578AC777002057714AA0499
:10281000F97BFF90015E7401F01228BD900003EE79
:10282000F0A3EFF080C31224E34026900003E0FF02
:10283000A3E09000D3CFF0A3EFF0E4900003F0A367
:10284000F0F577F5782000097B0F7D077F03123ABA
:10285000C322121B13121A7FFBD31206C6405B7FE2
:10286000887E13900114121AC7504F121AF4121ACC
:102870007FFB1206C64043121B00121ACA503B12BD
:102880001AD3900120121A7FFB1206C6402C121A8E
:10289000D3900124121A7FFBD31206C6401C121AD1
:1028A000E9121A7FFBD31206C6400F7FA07E0F905D
:1028B0000118121AC750037F00227F0122123EB76F
:1028C000A3EBF0A3EAF0A3E9F090015EE0FF14F0BF
:1028D000EF604B900159E0FCA3E090015FF0E0FF56
:1028E00090015BE0FBA3E475F0011204D6A9F0FAB5
:1028F00012039C6F90015FF0ECFF7E00123EB790D8
:10290000015FE075F002A424F4F582E5F0343EF5B1
:1029100083E493FE7401936FFF123EB780AB900186
:1029200059E0FEA3E0FF2290014C1239BA2404F9C9
:10293000E43AFA9001521239BA1239AD1239D0C3C1
:10294000940150037F03221239AD1239CAFF90015E
:10295000521239B08F827583001203B5FF90014F78
:102960001239B0EF1204371239AD90000174011220
:10297000040490000374FF1204041239C31239C90D
:10298000C39F400A1239AD900001E41204497F014F
:1029900022757973757AFE7F0C7A00790C1224D334
:1029A00090000C7402F090000E7444F0A37433F0A5
:1029B00090012FA3A3A3E0900010F0A37402F07F76
:1029C000007E08122A5A900012EEF0A3EFF0900059
:1029D000D3E0FFA3E0900014CFF0A3EFF0857A825C
:1029E000857983E493FE740193FF122A5A900016AE
:1029F000EEF0A3EFF022900201120776900178E04A
:102A0000FCA3E0FDA3E0FEA3E0900174121A7E1285
:102A10001A9F90017C121A7F121A9F900201121ABB
:102A20007F121A9FE47B04FAF9F812320D90020526
:102A3000120776900178121A93A312077690017408
:102A4000121A93A3120776900201121A939001743E
:102A5000120776900205121A9322EECFCE22EECD07
:102A6000CEEFCCCF22EB700122EFF584EEF585EDB1
:102A7000F582ECF583758600E0A30586F0A3058654
:102A8000DBF622EB700122EFF582EEF583EDF0A389
:102A9000DBFC22EF8DF0A4ABF0CF8CF0A42BFB7409
:102AA0000035F0CD8EF0A42BCEC5F03DFD74003482
:102AB00000CCA42DFDE5F03CFC2290014512204BFA
:102AC000A3EDF07F01123956EF60037F0022122040
:102AD0005590014912204B120036A312204B1215BB
:102AE000EC90014912202C1220C1FF7E0090014C75
:102AF0001220A2240812207590014512202C120ADF
:102B00006390014C12202C12039C44011204379054
:102B10000148E0FF1212E67F0122300E037F0022FF
:102B20001233977002FF227800EBF208EAF208E90C
:102B3000F212335B740412043712335B90000212FA
:102B400003B5FF9001A4F0123397900002120449DC
:102B5000900004E4120449EF30E01512335B90005A
:102B6000051203B5F5C1900004740112040480033A
:102B700075C155C20FD20E7F01229002371207761F
:102B8000E4FFFEFD7C4F9002371235D512026440FF
:102B9000169001F6E070087407F074051235E174C0
:102BA000FFFFFEFD7C7F22E4FFFEFD7CCF9002371D
:102BB0001235D5120264600250149001F6E07007DD
:102BC0007407F0141235E1E4FFFEFD7C80229002D0
:102BD000371235EB12031B229001421239E1123AEF
:102BE00026A31239E1E4FF9001451239D94A4B601E
:102BF000387E019001451239D9F912039CFDEED3BC
:102C00009D50268E827583001203B5FD6018AF05B6
:102C10008E82758300E4120449EE14FE9001421284
:102C200039D9F9EE800B0E80CA9001421239D9F9D8
:102C3000E412043722123D2C900139E0B50627A397
:102C4000E0B50722E4FFFEFDFC90012FE0F8A3129F
:102C500024C0FBD31206C6500D1224A9EC33400643
:102C600090003C0207769001F6E070197442F090F3
:102C7000012FA3A3A3E09001F1F090003CA3A3A334
:102C8000E09001F7F090003C12079BFFFFFFFF224E
:102C90009001551231FB7401F074511231E212317E
:102CA000C912320612FFDD1231C9900001122CDE6A
:102CB0001231C9900002122CDE900155E0FEA3E013
:102CC000FFA31231D99000031203B5FD7B0112FF5F
:102CD000DD90015BE0F5D890015AE0F5A8221203DF
:102CE000B5FD7B0112FFDD2290014BEEF0A3EF1248
:102CF00031E390014BE0FEA3E0FFF5828E83E49385
:102D000090014FF0758F01E4FB12FFDDE4F58F9029
:102D1000014EE0F5D890014DE0F5A890014BE0FEA2
:102D2000A3E0F5828E83E493FF9001F6E0701074C7
:102D3000FFF09001F1EFF090014FE09001F7F022E9
:102D400090014C12365F90014C12365190014C129A
:102D5000364A9000051203B5FF123668FEC39F5035
:102D60001F90014F1236488E82758300ED12044980
:102D700090014C1236489000067401120404800B36
:102D800090014C123648740312043790014C1236ED
:102D90004812039CFF2290023B120776E4FFFE7D5F
:102DA000807C4F90023B1235D51202644010900196
:102DB000F6E070067407F01235E174FF801EE4FF40
:102DC000FEFDFC90023B1235D512026450139001B7
:102DD000F6E070071235F7041235E4E4FFFEFDFC5F
:102DE0002290023B1235EB12031B22900243120782
:102DF000769002431235CEC31206C640139001F6F8
:102E0000E070081235F7740B1235E47EFF7FFF2265
:102E10007F007E807DFF7CFF9002431235D5C31278
:102E200006C650139001F6E070081235F7740C12C4
:102E300035E47E807F0022900243A31235F0229079
:102E40000150EFF0C39409503B12176270309001AB
:102E500051740FF0900151E0FF14F0EF6020E0FF9B
:102E6000121739F583E0B4A5EBEF121758F583E09C
:102E7000FF900150E0FEEFB506DAA3E0FF229001DB
:102E800050E0FF229001F6E0700574401217ED7FCC
:102E9000FF22C2DDC2AFAF1FE4F51FD2DDD2AF907B
:102EA000021BE02FF090021BE0C3940A4035E0249F
:102EB000F6F090021AE004F0C3940A40E8E4F090BF
:102EC0000218E004F0940A40DCE4F0A3E004F0947B
:102ED0003C40D2E4F090021CE004F0943C40C6E494
:102EE000F080C2229000E01238BDCEC313CE13D8BA
:102EF000F9540EFFEDF9541FFEC374209EFEFD90A1
:102F000000D5E0FAA3E0FBC39DEA94005002AE03B3
:102F10009000D7E0FC24E2F582E43400F583E9F088
:102F2000EF44A0FFEE04FD74E22CF9E43400FA7BD8
:102F30000102000E9001BCEEF0A3EFF0A3EBF0A3B2
:102F4000EAF0A3E9F0A3E5A8F0A3E5D8F0123D99D3
:102F50009001BBE0FF14F0EF60281231EC1231F366
:102F6000AFF0FE9001BEE0FB1231F3A9F0FA12328D
:102F70000612FFDD9001C2E0F5D89001C1E0F5A88E
:102F800080CE2290003BE0D3940040157B017A0074
:102F9000790C122217900144EFF06005E490003B99
:102FA000F0900137E06024900128E0FEA3E0FF12DA
:102FB0002A5A900142EEF0A3EFF07B017A017942A8
:102FC0007D01122ABA900144EFF0227F011212E62D
:102FD0002290014FECF0A3EDF0A31231FB7401F04D
:102FE000744F1231E29001511231F49001531231B9
:102FF000D612320612FFDD900151E0FEA3E0FFA3DE
:103000001231D99000011203B5FD7B0112FFDD9052
:103010000157E0F5D8900156E0F5A8229001411241
:10302000204B900141E0F9A3E0FAA3E0900146C9EA
:1030300012204C900141E0FBA31220909001491214
:10304000204B900145E0FFA312202C900001EF12CD
:103050000449ED24FB9000031204491230AD9001A5
:103060004612202C2290023F1235FE90023F12356C
:10307000D5C31206C640139001F6E070081235F76A
:1030800074091235E47EFF7FFF2290023FE0FCECE2
:103090003350129001F6E070081235F7740A1235B9
:1030A000E4E4FEFF2290023FA31235F02290015C7F
:1030B00012204B90015C12202C12003690015F12FE
:1030C000204B90015C12202C740212043790015C9A
:1030D00012202C1220C124081220D5122085900025
:1030E00002120449122085FF7E007D0090015F12CC
:1030F000202C0207F912203512039C6403703D90C6
:10310000015912202C122B1AEF6031200D04D20D20
:103110008002C20D1220351236B7EF6009900159B6
:1031200012202C0230AD90015912202C1230ADE447
:1031300090015FF0FB7D017FF51237E2229001E9FB
:10314000EB121716AF05122E3FEFC3940F50291242
:103150003DE79001EDE09001EF1217E19001EE12D2
:10316000177CC003C0029001E9121730F8AC02AD21
:1031700003D002D0030209839001F6E07003121716
:10318000BD7F0122900148EB121716AF05122E3FAA
:10319000EFC3940F5029123DE790014CE090014E8F
:1031A0001217E190014D12177CC003C00290014834
:1031B000121730F8AC02AD03D002D003020A6390BC
:1031C00001F6E070031217BD22900155E475F0017D
:1031D0001204D6900157AFF0FEE0FBA3E0FAA3E0A3
:1031E000F922A3F0A3E5A8F0A3E5D8F053A87F53F4
:1031F000D8DF22A3E475F0010204D6EEF0A3EFF0CD
:10320000A37401F0A32212039CFD7B0122C2D5E826
:1032100030E70FB2D5E4C39BFBE49AFAE499F9E4F2
:1032200098F8EC30E717B2D5123243120626E4C301
:103230009BFBE49AFAE499F9E498F88003120626D5
:1032400030D50DE4C39FFFE49EFEE49DFDE49CFCAD
:10325000229001FDE0FCA3E0FDA3E0FEA3E0FF90CF
:103260000193E022F812074E9001FDE0F8A3E0F987
:10327000A3E0FAA3E0FB2243F10875D78822EB25EF
:10328000E025E0243F2225E025E0242322D280D23D
:1032900081D282227B017A01792F900140E4F0A350
:1032A000740CF07D007C0412267F900138E0F460FD
:1032B0000F123D2C900139E06E7003A3E06F601691
:1032C0009001337427F0A37410F0E4A3F0A3F0A3EB
:1032D00004F0A37419F022121A8A780212070190DE
:1032E0000141121A24121ADB900141120776900153
:1032F00062121A937801120701900162121A2412C5
:103300001ADB121A8A78041206ED121A8A900162E8
:10331000121A8D78021206ED2290015912204B905C
:10332000015912208BA312204B90015912202E120A
:103330002085FF1220AAFED39F40037F0022900128
:103340005C12202C8E82758300ED12044990015985
:1033500012202C74011220BB7F01227800E2FB08AE
:10336000E2FA08E2F92290013FE0F8A3E0F9A3E0D5
:10337000FAA3E02290025BE0FBA3E0FAA3E0229034
:10338000013BE0FCA3E0FDA3E0FEA3E0FF22EBF0A5
:10339000A3EAF0A3E9F0229000040203B590022F03
:1033A0001207767F007EFE7DFF7C4690022F12354D
:1033B000D512026440057E7F7FFF22E4FFFEFD7C84
:1033C000C790022F1235D5120264600250057E802C
:1033D0007F002290022F1235EB12031B229000E097
:1033E000A3E0541FFFC374209FFFFDD39000D6E0DD
:1033F0009D9000D5E0940040217C00A3E09DF090DA
:1034000000D5E09CF09000D7E02FF09000E1E02D97
:10341000F09000E0E03CF07F01227F002290020962
:10342000EB121716A312079B00000000121743129D
:1034300028BD900BA6E06E7003A3E06F600A9002B7
:103440000C12079B0000111112171E90020912178F
:1034500030F912073490020C1217212290014B12FE
:1034600007767E0B7F80123C3A7E0B7FA2C006C09F
:103470000790014B121721900151120776D007D007
:1034800006122C907B017A01794B1217491228BD44
:10349000AC06AD077E0B7FA6022FD1AE03123A26F3
:1034A0009002551239E19002551239D94A4B6029E0
:1034B0009002551239EAEEC39F501EEEF5827583D5
:1034C00000A31203B5B50511AF06EF2401FFE433E5
:1034D000FE8F828E83E4120449229000DEE0FEA378
:1034E000E07807CEC313CE13D8F9540EFF9001082D
:1034F000E0FCA3E0FDC39420EC94009000D85004BD
:10350000EDF080037420F0EF44A1FF9000D8E0FDBF
:103510007B017A0079E202000E90014112365FEDE4
:10352000C3940D50077B007A00790022900141126C
:103530003648E4120437ED24F8FF90014112364872
:10354000900005EF120449900006E412044990002F
:1035500007E4120449229002331207767F007EFFAF
:103560007D7F7C479002331235D512026440057E80
:10357000FF7FFF22E4FFFEFDFC9002331235D512DF
:1035800002645004E4FEFF229002331235EB120372
:103590001B22900215E0B4021EE51CC39464401780
:1035A000C2DDC2AF749C251CF51CD2DDD2AF7B05F9
:1035B0007D037F03123AC37B017A01793B7F0112BD
:1035C0002BD8EF24FE6003047003123CED22E47F4D
:1035D000FF7E7FFDFCE0F8A3E0F9A3E0FAA3E0FBA7
:1035E000229001F1F0E49001F7F022E0FCA3E0FD6D
:1035F000A3E0FEA3E0FF227407F09001F12212077E
:1036000076E47FFF7EFFFDFC22C0E0C0F0C083C0F7
:1036100082C085C084C086C0D075860075D008126F
:10362000181A20080E30060B743EC0E07400C0E08B
:10363000D20832D0D0D086D084D085D082D083D06A
:10364000F0D0E032F0900145E0FBA3E0FAA3E0F90E
:1036500022E0FBA3E0FAA3E02408F9E43AFAA3EBA2
:10366000F0A3EAF0A3E9F0229000060203B5740487
:103670001204379001F6E02290000102056EC0E0CE
:10368000C0F0C083C082C085C084C086C0D07586AB
:103690000075D008123D7820080C300609743EC031
:1036A000E07400C0E032D0D0D086D084D085D08203
:1036B000D083D0F0D0E03212039CD3940440037F37
:1036C0000022122085FE1220C1C39E40037F0022EB
:1036D0001220AAD39E40037F0022122085FF900073
:1036E000021203B5D39F7F0140027F0022123A26C7
:1036F00090013E1239E11239D64A4B602290013EC8
:10370000A3A3E0F9ED1204377F01EFD39D5010120F
:1037100039D6F98F82758300E41204490F80EB22B9
:103720007F01123A2690013BEBF0A3EAF0A3E9F007
:103730007D011236ED0D7F021236ED7D087F0312FA
:1037400036ED7B06E4FD7F03123AC390012E74012F
:10375000F0227C00ADDBAEDAAFD9227C00E5DBFDE8
:10376000AEDAAFD930E7027CFF227C00E5DB648073
:10377000FDAEDAAFD922ED30E7027CFF22ED6480A6
:10378000FD22900180EFF06016146016146016148C
:1037900060161460161460168000E4900180F00238
:1037A0003E11023E1E023E2B023E38023E45123EB4
:1037B0005222900193E0F47025900180E014601291
:1037C00014600F14600C1460091460062405701155
:1037D000800012375B8F3E8E3D8D3C8C3B22123732
:1037E0005B2290015CEFF0AF0312205512003612FD
:1037F00020D4900005ED120449900006EF12044910
:1038000090015FE090000712044912039C440402F7
:1038100004379002231239BA1239B99002231239AF
:10382000B0123A76EF60189002231239B01239C301
:103830002404FD9002261239B0123C727F01227FCF
:103840000022123DE790024F121710E4FF90024F42
:10385000121730F98F827583001203B5FD3395E09E
:10386000FCEDF44C60037F00220FEFB480DF7F019A
:1038700022900197E5C1F0A31233774A4B70028082
:1038800018900198123377F9900197E0FD12277391
:10389000900196EFF06401600690019FE004F02231
:1038A000A3F07B017A01790B22E4900105F0A3F0EB
:1038B0009000DCF0A322900107740AF022E0FCA340
:1038C000E0FDAE0478072290010B74FFF022E56A58
:1038D0007029E5716011E5727F0130E0027F008F91
:1038E0006CE4F571756E01E56E601012257FEF7066
:1038F00007D2967F01023D54E4F56E2290024712F2
:1039000035FE9002471235D5C31206DC40139001F4
:10391000F6E070081235F7740D1235E47EFF7FFF74
:1039200022900247A31235F02290024B12077690A4
:10393000024B1235CEC31206DC40139001F6E07044
:10394000081235F7740E1235E47E7F7FFF22900255
:103950004BA31235F022900159EF1220541236B7C2
:10396000EF70037F012212205512003612039CFED5
:10397000900159E05E60037F0122EE7F0030E0029B
:103980007F0122E4900215F0900211F0900213F0F2
:10399000900216F090021AE0900212F0900218E0E5
:1039A000900214F0900219E0900210F02290014C65
:1039B000E0FBA3E0FAA3E0F922A3EBF0A3EAF0A373
:1039C000E9F0229000020203B5FF9000010203B566
:1039D0009000030203B590013EE0FBA3E0FAA3E0F0
:1039E00022EBF0A3EAF0A3E9F022A3A3E0F912038B
:1039F0009CFF22EDF582758300A3EE0204497F0A45
:103A0000123EE875DD31E490013BF07FC8123EE8DC
:103A100012375B90013BE004F0E0C394FA40EC12F3
:103A2000375B75DD3022EF24FE600E146012240235
:103A300070157B017A0179B4227B017A0179B12278
:103A40007B017A0179A8227B007A0079002290011B
:103A50005912204B122092A312204B900159122090
:103A60002C1220C12408FFE433FE90015C1220A236
:103A70002FF9EA3EFA221239C3FE1239D0D39E4002
:103A8000037F002212039CD39E40037F0022123941
:103A9000C31239C9D39F7F0140027F00228B5B8A0A
:103AA0005C895D9001441220A28B5E8A5FF560C242
:103AB0000DE4F564C20CF561F562F563F558F5594E
:103AC000F55A22AE03123A2690014B1239E19001C9
:103AD0004B1239D94A4B600E90014B1239EAEDC3B3
:103AE0009F50031239F322AE03123A26900252126B
:103AF00039E19002521239D94A4B600E90025212AB
:103B000039EAEDC39F50031239F322E5C054F0FFA8
:103B1000BF701930DF16E58E30E411E58830E60C11
:103B2000E58954F0FFBF20047F0180027F002290CE
:103B300000DE1238BDCEC313CE13D8F9540EFBED00
:103B400090010BF0AF03EF44A0FF1238A27D0102F9
:103B5000000E7B017A0079E29000DEE0FCA3E0FD3C
:103B60009000D8E0900147F0121C15EF7006122467
:103B7000ED1237E22290014112338E7E007F057DE7
:103B8000007B017A01799F1207F990014112336C91
:103B9000900198C912338F22123BA96003021921A8
:103BA000123BA9600312149A227B017A01793C7FAF
:103BB00002122BD890013BEFF022E4F580F5AD75B1
:103BC000AC1D7590FF75AF6D75AE7075A0C075B208
:103BD000F075B11575B0FFF5B4F5B322EF60109034
:103BE000010AE004F0E0D3940A4010740AF0229035
:103BF000010AE0D394004003E014F022E4FB123207
:103C00007EF812078280000000EB123286F812075D
:103C1000827FFFFFFF0BEBB406E422E49000E0F0AC
:103C2000A3F09000D5F0A3F0A3F090010F7402F080
:103C3000123E039000D97409F02290014F1231E531
:103C4000123D997B01E4FD12FFD7900150E0F5D8B9
:103C500090014FE0F5A822D2DDD2AFE51F700490AD
:103C60000217F0900217E0651F60F8900217E51F39
:103C7000F022E4120437900001120449ED24FC9074
:103C80000002120449900003E4120449227B007AE6
:103C9000007900E4900147F0FDFC121C15EF70065E
:103CA0001224ED1237E22290025E1231E57B0112FE
:103CB000FFDD90025FE0F5D890025EE0F5A82212E9
:103CC000328D53F1F775F60975DF0075DEAA75DCE4
:103CD00030123E110239FE75FB1875FD6175FCA7A7
:103CE00075FE6375FA8053F1FD75A61022E490020B
:103CF0001BF090021AF0900218F0A3F090021CF052
:103D0000F51F22E58954F04402F589758C70E4F5BD
:103D10008AD2A9D28CD2AF22900222E0600BE518A1
:103D2000D3940040047F0180027F00227B017A014E
:103D3000792F90015E740AF074FFFFFE1228BD22F5
:103D40008B588A59895A8D65E4F566F567AF05F594
:103D5000688F6922EF600612328DD29422C294C21B
:103D600080C281C28222900262E0D394004006E0C9
:103D700014F07F01227F002230C005C2C0123871CA
:103D800030C105C2C1121F6E22C0E0E5A730E404B5
:103D9000E5FA051FC2DCD0E03253F1FB75FF217557
:103DA000FF0175FF8175FF012253F1FB75FF277538
:103DB000FF0775FF8775FF07229001F6E060097B1A
:103DC000077D057F03123AC322900180E0900193A2
:103DD000F090018074FFF0221238C7A374021238E9
:103DE000A1FD7FAE02000EEF75F080A42400FFE578
:103DF000F03404FE22EF600412328D22C280C281B0
:103E0000C282221238C7E41238A07D027FAE0200BF
:103E10000E12327775DC3C75D72153F1F72212323E
:103E20007775DC3275D73453F1F72212327775DCAF
:103E30003075D75053F1F72212327775DC3275D7CF
:103E40007653F1F72212327775DC3875D71053F1BB
:103E5000F72212327775DC3875D72053F1F722122A
:103E600038C71238A07D027FA102000E90021EE02A
:103E7000FBA3E0FAA3E0F922900259E060031238B4
:103E8000CE021DDE90000D7402F090003B14F02273
:103E90009000D9E0B404037405F02253F1FB75FFE0
:103EA0008075FF07221238A9F09000D9F022E51999
:103EB0007F0070027F0122900159EEF0A3EFF02203
:103EC000122055120036228B618A62896322A20E6B
:103ED000E433FF229001A7EFF0228F647F0122C21A
:103EE0000C7F012275EFA52200DFFD221220552252
:103EF00080FE22220000C0C1C1810140C30103C075
:103F00000280C241C60106C00780C7410500C5C185
:103F1000C4810440CC010CC00D80CD410F00CFC145
:103F2000CE810E400A00CAC1CB810B40C90109C035
:103F30000880C841D80118C01980D9411B00DBC1D5
:103F4000DA811A401E00DEC1DF811F40DD011DC085
:103F50001C80DC411400D4C1D5811540D70117C0A5
:103F60001680D641D20112C01380D3411100D1C1B5
:103F7000D0811040F00130C03180F1413300F3C1F5
:103F8000F28132403600F6C1F7813740F50135C085
:103F90003480F4413C00FCC1FD813D40FF013FC045
:103FA0003E80FE41FA013AC03B80FB413900F9C135
:103FB000F88138402800E8C1E9812940EB012BC095
:103FC0002A80EA41EE012EC02F80EF412D00EDC185
:103FD000EC812C40E40124C02580E5412700E7C1A5
:103FE000E68126402200E2C1E3812340E10121C0B5
:103FF0002080E041A00160C06180A1416300A3C1B5
:10400000A28162406600A6C1A7816740A50165C084
:104010006480A4416C00ACC1AD816D40AF016FC044
:104020006E80AE41AA016AC06B80AB416900A9C134
:10403000A88168407800B8C1B9817940BB017BC0D4
:104040007A80BA41BE017EC07F80BF417D00BDC184
:10405000BC817C40B40174C07580B5417700B7C1A4
:10406000B68176407200B2C1B3817340B10171C0B4
:104070007080B041500090C191815140930153C074
:1040800052809241960156C057809741550095C184
:10409000948154409C015CC05D809D415F009FC144
:1040A0009E815E405A009AC19B815B40990159C034
:1040B00058809841880148C0498089414B008BC194
:1040C0008A814A404E008EC18F814F408D014DC084
:1040D0004C808C41440084C185814540870147C0A4
:1040E00046808641820142C043808341410081C1B4
:1040F00080814040419502F93A435000399C40008C
:0C41000039C35000399C4000399C40003D
:02807E00FF9D64
:0273FE00B95084
:00000001FF
